{
  "_format": "hh3-artifact-1",
  "contractName": "AuditLog",
  "sourceName": "contracts/AuditLog.sol",
  "abi": [
    {
      "anonymous": false,
      "inputs": [
        {
          "indexed": true,
          "internalType": "address",
          "name": "dataPrincipal",
          "type": "address"
        },
        {
          "indexed": true,
          "internalType": "address",
          "name": "fiduciary",
          "type": "address"
        },
        {
          "indexed": false,
          "internalType": "string",
          "name": "purpose",
          "type": "string"
        },
        {
          "indexed": false,
          "internalType": "uint256",
          "name": "expiry",
          "type": "uint256"
        }
      ],
      "name": "ConsentGranted",
      "type": "event"
    },
    {
      "anonymous": false,
      "inputs": [
        {
          "indexed": true,
          "internalType": "address",
          "name": "dataPrincipal",
          "type": "address"
        },
        {
          "indexed": true,
          "internalType": "address",
          "name": "fiduciary",
          "type": "address"
        }
      ],
      "name": "ConsentRevoked",
      "type": "event"
    },
    {
      "anonymous": false,
      "inputs": [
        {
          "indexed": true,
          "internalType": "address",
          "name": "dataPrincipal",
          "type": "address"
        },
        {
          "indexed": true,
          "internalType": "address",
          "name": "fiduciary",
          "type": "address"
        },
        {
          "indexed": false,
          "internalType": "string",
          "name": "purpose",
          "type": "string"
        },
        {
          "indexed": false,
          "internalType": "uint256",
          "name": "timestamp",
          "type": "uint256"
        }
      ],
      "name": "DataAccessed",
      "type": "event"
    },
    {
      "anonymous": false,
      "inputs": [
        {
          "indexed": true,
          "internalType": "address",
          "name": "dataPrincipal",
          "type": "address"
        },
        {
          "indexed": false,
          "internalType": "uint256",
          "name": "timestamp",
          "type": "uint256"
        }
      ],
      "name": "ErasureRequested",
      "type": "event"
    },
    {
      "inputs": [
        {
          "internalType": "address",
          "name": "_principal",
          "type": "address"
        },
        {
          "internalType": "address",
          "name": "_fiduciary",
          "type": "address"
        },
        {
          "internalType": "string",
          "name": "_purpose",
          "type": "string"
        },
        {
          "internalType": "uint256",
          "name": "_expiry",
          "type": "uint256"
        }
      ],
      "name": "logConsentGranted",
      "outputs": [],
      "stateMutability": "nonpayable",
      "type": "function"
    },
    {
      "inputs": [
        {
          "internalType": "address",
          "name": "_principal",
          "type": "address"
        },
        {
          "internalType": "address",
          "name": "_fiduciary",
          "type": "address"
        }
      ],
      "name": "logConsentRevoked",
      "outputs": [],
      "stateMutability": "nonpayable",
      "type": "function"
    },
    {
      "inputs": [
        {
          "internalType": "address",
          "name": "_principal",
          "type": "address"
        },
        {
          "internalType": "address",
          "name": "_fiduciary",
          "type": "address"
        },
        {
          "internalType": "string",
          "name": "_purpose",
          "type": "string"
        },
        {
          "internalType": "uint256",
          "name": "_timestamp",
          "type": "uint256"
        }
      ],
      "name": "logDataAccessed",
      "outputs": [],
      "stateMutability": "nonpayable",
      "type": "function"
    },
    {
      "inputs": [
        {
          "internalType": "address",
          "name": "_principal",
          "type": "address"
        },
        {
          "internalType": "uint256",
          "name": "_timestamp",
          "type": "uint256"
        }
      ],
      "name": "logErasureRequested",
      "outputs": [],
      "stateMutability": "nonpayable",
      "type": "function"
    }
  ],
  "bytecode": "0x6080604052348015600e575f5ffd5b5061060a8061001c5f395ff3fe608060405234801561000f575f5ffd5b506004361061004a575f3560e01c8063506373501461004e57806372a4dcbe1461006a578063a3b233e514610086578063df0a1822146100a2575b5f5ffd5b61006860048036038101906100639190610422565b6100be565b005b610084600480360381019061007f91906104a2565b61012b565b005b6100a0600480360381019061009b9190610422565b61017d565b005b6100bc60048036038101906100b791906104e0565b6101ea565b005b8273ffffffffffffffffffffffffffffffffffffffff168473ffffffffffffffffffffffffffffffffffffffff167f3cc5888a7d8cfcbbff8cb815b1e745f2e7aa41c13c39502993c4defa007c18d3848460405161011d92919061058d565b60405180910390a350505050565b8173ffffffffffffffffffffffffffffffffffffffff167faf9658ebe9237a57bbc2e1f0fce51838bd03018ee777182ec5bfc9277a8467568260405161017191906105bb565b60405180910390a25050565b8273ffffffffffffffffffffffffffffffffffffffff168473ffffffffffffffffffffffffffffffffffffffff167f60059a1ef0416256f2a67d179abb569f5b6680e24ce411691b3a6d8d63a7ccea84846040516101dc92919061058d565b60405180910390a350505050565b8073ffffffffffffffffffffffffffffffffffffffff168273ffffffffffffffffffffffffffffffffffffffff167febecee2d3f2ea272f73dd9d9ccc0bacd11280d61240332cbcd8a68173ae5cc2c60405160405180910390a35050565b5f604051905090565b5f5ffd5b5f5ffd5b5f73ffffffffffffffffffffffffffffffffffffffff82169050919050565b5f61028282610259565b9050919050565b61029281610278565b811461029c575f5ffd5b50565b5f813590506102ad81610289565b92915050565b5f5ffd5b5f5ffd5b5f601f19601f8301169050919050565b7f4e487b71000000000000000000000000000000000000000000000000000000005f52604160045260245ffd5b610301826102bb565b810181811067ffffffffffffffff821117156103205761031f6102cb565b5b80604052505050565b5f610332610248565b905061033e82826102f8565b919050565b5f67ffffffffffffffff82111561035d5761035c6102cb565b5b610366826102bb565b9050602081019050919050565b828183375f83830152505050565b5f61039361038e84610343565b610329565b9050828152602081018484840111156103af576103ae6102b7565b5b6103ba848285610373565b509392505050565b5f82601f8301126103d6576103d56102b3565b5b81356103e6848260208601610381565b91505092915050565b5f819050919050565b610401816103ef565b811461040b575f5ffd5b50565b5f8135905061041c816103f8565b92915050565b5f5f5f5f6080858703121561043a57610439610251565b5b5f6104478782880161029f565b94505060206104588782880161029f565b935050604085013567ffffffffffffffff81111561047957610478610255565b5b610485878288016103c2565b92505060606104968782880161040e565b91505092959194509250565b5f5f604083850312156104b8576104b7610251565b5b5f6104c58582860161029f565b92505060206104d68582860161040e565b9150509250929050565b5f5f604083850312156104f6576104f5610251565b5b5f6105038582860161029f565b92505060206105148582860161029f565b9150509250929050565b5f81519050919050565b5f82825260208201905092915050565b8281835e5f83830152505050565b5f6105508261051e565b61055a8185610528565b935061056a818560208601610538565b610573816102bb565b840191505092915050565b610587816103ef565b82525050565b5f6040820190508181035f8301526105a58185610546565b90506105b4602083018461057e565b9392505050565b5f6020820190506105ce5f83018461057e565b9291505056fea2646970667358221220302c29159196e1cf03cc44cf628e893aa2a052e1aea74eb0405e01edbf689e0c64736f6c634300081c0033",
  "linkReferences": {},
  "deployedLinkReferences": {},
  "immutableReferences": {},
  "inputSourceName": "project/contracts/AuditLog.sol",
  "buildInfoId": "solc-0_8_28-aa35902d2c39e80aba8a06bd6404e0280af89526"
}