{
  "_format": "hh3-artifact-1",
  "contractName": "ConsentManager",
  "sourceName": "contracts/ConsentManager.sol",
  "abi": [
    {
      "inputs": [
        {
          "internalType": "address",
          "name": "_registry",
          "type": "address"
        },
        {
          "internalType": "address",
          "name": "_audit",
          "type": "address"
        }
      ],
      "stateMutability": "nonpayable",
      "type": "constructor"
    },
    {
      "inputs": [],
      "name": "audit",
      "outputs": [
        {
          "internalType": "contract AuditLog",
          "name": "",
          "type": "address"
        }
      ],
      "stateMutability": "view",
      "type": "function"
    },
    {
      "inputs": [],
      "name": "getMyConsents",
      "outputs": [
        {
          "components": [
            {
              "internalType": "address",
              "name": "dataPrincipal",
              "type": "address"
            },
            {
              "internalType": "address",
              "name": "dataFiduciary",
              "type": "address"
            },
            {
              "internalType": "string",
              "name": "purpose",
              "type": "string"
            },
            {
              "internalType": "string",
              "name": "dataHash",
              "type": "string"
            },
            {
              "internalType": "uint256",
              "name": "grantedAt",
              "type": "uint256"
            },
            {
              "internalType": "uint256",
              "name": "expiry",
              "type": "uint256"
            },
            {
              "internalType": "bool",
              "name": "isActive",
              "type": "bool"
            },
            {
              "internalType": "bool",
              "name": "erased",
              "type": "bool"
            }
          ],
          "internalType": "struct ConsentManager.Consent[]",
          "name": "",
          "type": "tuple[]"
        }
      ],
      "stateMutability": "view",
      "type": "function"
    },
    {
      "inputs": [
        {
          "internalType": "address",
          "name": "_fiduciary",
          "type": "address"
        },
        {
          "internalType": "string",
          "name": "_purpose",
          "type": "string"
        },
        {
          "internalType": "string",
          "name": "_dataHash",
          "type": "string"
        },
        {
          "internalType": "uint256",
          "name": "_durationInSeconds",
          "type": "uint256"
        }
      ],
      "name": "grantConsent",
      "outputs": [],
      "stateMutability": "nonpayable",
      "type": "function"
    },
    {
      "inputs": [],
      "name": "registry",
      "outputs": [
        {
          "internalType": "contract DataFiduciaryRegistry",
          "name": "",
          "type": "address"
        }
      ],
      "stateMutability": "view",
      "type": "function"
    },
    {
      "inputs": [
        {
          "internalType": "uint256",
          "name": "index",
          "type": "uint256"
        }
      ],
      "name": "requestErasure",
      "outputs": [],
      "stateMutability": "nonpayable",
      "type": "function"
    },
    {
      "inputs": [
        {
          "internalType": "uint256",
          "name": "index",
          "type": "uint256"
        }
      ],
      "name": "revokeConsent",
      "outputs": [],
      "stateMutability": "nonpayable",
      "type": "function"
    },
    {
      "inputs": [
        {
          "internalType": "address",
          "name": "_principal",
          "type": "address"
        },
        {
          "internalType": "uint256",
          "name": "index",
          "type": "uint256"
        }
      ],
      "name": "validateConsent",
      "outputs": [
        {
          "internalType": "bool",
          "name": "",
          "type": "bool"
        }
      ],
      "stateMutability": "view",
      "type": "function"
    }
  ],
  "bytecode": "0x608060405234801561000f575f5ffd5b506040516119d93803806119d983398181016040528101906100319190610116565b8160015f6101000a81548173ffffffffffffffffffffffffffffffffffffffff021916908373ffffffffffffffffffffffffffffffffffffffff1602179055508060025f6101000a81548173ffffffffffffffffffffffffffffffffffffffff021916908373ffffffffffffffffffffffffffffffffffffffff1602179055505050610154565b5f5ffd5b5f73ffffffffffffffffffffffffffffffffffffffff82169050919050565b5f6100e5826100bc565b9050919050565b6100f5816100db565b81146100ff575f5ffd5b50565b5f81519050610110816100ec565b92915050565b5f5f6040838503121561012c5761012b6100b8565b5b5f61013985828601610102565b925050602061014a85828601610102565b9150509250929050565b611878806101615f395ff3fe608060405234801561000f575f5ffd5b506004361061007b575f3560e01c80634448e28f116100595780634448e28f146100d55780637b103999146100f15780637cc36dee1461010f578063d46038ec1461012d5761007b565b806309e422e71461007f57806316a0042c1461009b5780631ddc0ef0146100b7575b5f5ffd5b61009960048036038101906100949190610d1f565b61015d565b005b6100b560048036038101906100b09190610d1f565b610264565b005b6100bf6103dc565b6040516100cc9190610dc4565b60405180910390f35b6100ef60048036038101906100ea9190610f54565b610401565b005b6100f9610754565b6040516101069190611010565b60405180910390f35b610117610779565b6040516101249190611230565b60405180910390f35b61014760048036038101906101429190611250565b610a22565b604051610154919061129d565b60405180910390f35b5f5f5f3373ffffffffffffffffffffffffffffffffffffffff1673ffffffffffffffffffffffffffffffffffffffff1681526020019081526020015f2082815481106101ac576101ab6112b6565b5b905f5260205f209060070201905060018160060160016101000a81548160ff02191690831515021790555060025f9054906101000a900473ffffffffffffffffffffffffffffffffffffffff1673ffffffffffffffffffffffffffffffffffffffff166372a4dcbe33426040518363ffffffff1660e01b8152600401610233929190611301565b5f604051808303815f87803b15801561024a575f5ffd5b505af115801561025c573d5f5f3e3d5ffd5b505050505050565b5f5f5f3373ffffffffffffffffffffffffffffffffffffffff1673ffffffffffffffffffffffffffffffffffffffff1681526020019081526020015f2082815481106102b3576102b26112b6565b5b905f5260205f2090600702019050806006015f9054906101000a900460ff16610311576040517f08c379a000000000000000000000000000000000000000000000000000000000815260040161030890611382565b60405180910390fd5b5f816006015f6101000a81548160ff02191690831515021790555060025f9054906101000a900473ffffffffffffffffffffffffffffffffffffffff1673ffffffffffffffffffffffffffffffffffffffff1663df0a182233836001015f9054906101000a900473ffffffffffffffffffffffffffffffffffffffff166040518363ffffffff1660e01b81526004016103ab9291906113a0565b5f604051808303815f87803b1580156103c2575f5ffd5b505af11580156103d4573d5f5f3e3d5ffd5b505050505050565b60025f9054906101000a900473ffffffffffffffffffffffffffffffffffffffff1681565b60015f9054906101000a900473ffffffffffffffffffffffffffffffffffffffff1673ffffffffffffffffffffffffffffffffffffffff1663673448dd856040518263ffffffff1660e01b815260040161045b91906113c7565b602060405180830381865afa158015610476573d5f5f3e3d5ffd5b505050506040513d601f19601f8201168201806040525081019061049a919061140a565b6104d9576040517f08c379a00000000000000000000000000000000000000000000000000000000081526004016104d09061147f565b60405180910390fd5b5f81426104e691906114ca565b90505f5f3373ffffffffffffffffffffffffffffffffffffffff1673ffffffffffffffffffffffffffffffffffffffff1681526020019081526020015f206040518061010001604052803373ffffffffffffffffffffffffffffffffffffffff1681526020018773ffffffffffffffffffffffffffffffffffffffff1681526020018681526020018581526020014281526020018381526020016001151581526020015f1515815250908060018154018082558091505060019003905f5260205f2090600702015f909190919091505f820151815f015f6101000a81548173ffffffffffffffffffffffffffffffffffffffff021916908373ffffffffffffffffffffffffffffffffffffffff1602179055506020820151816001015f6101000a81548173ffffffffffffffffffffffffffffffffffffffff021916908373ffffffffffffffffffffffffffffffffffffffff160217905550604082015181600201908161065491906116f1565b50606082015181600301908161066a91906116f1565b506080820151816004015560a0820151816005015560c0820151816006015f6101000a81548160ff02191690831515021790555060e08201518160060160016101000a81548160ff021916908315150217905550505060025f9054906101000a900473ffffffffffffffffffffffffffffffffffffffff1673ffffffffffffffffffffffffffffffffffffffff1663a3b233e5338787856040518563ffffffff1660e01b815260040161072094939291906117f8565b5f604051808303815f87803b158015610737575f5ffd5b505af1158015610749573d5f5f3e3d5ffd5b505050505050505050565b60015f9054906101000a900473ffffffffffffffffffffffffffffffffffffffff1681565b60605f5f3373ffffffffffffffffffffffffffffffffffffffff1673ffffffffffffffffffffffffffffffffffffffff1681526020019081526020015f20805480602002602001604051908101604052809291908181526020015f905b82821015610a19578382905f5260205f209060070201604051806101000160405290815f82015f9054906101000a900473ffffffffffffffffffffffffffffffffffffffff1673ffffffffffffffffffffffffffffffffffffffff1673ffffffffffffffffffffffffffffffffffffffff168152602001600182015f9054906101000a900473ffffffffffffffffffffffffffffffffffffffff1673ffffffffffffffffffffffffffffffffffffffff1673ffffffffffffffffffffffffffffffffffffffff1681526020016002820180546108b19061152a565b80601f01602080910402602001604051908101604052809291908181526020018280546108dd9061152a565b80156109285780601f106108ff57610100808354040283529160200191610928565b820191905f5260205f20905b81548152906001019060200180831161090b57829003601f168201915b505050505081526020016003820180546109419061152a565b80601f016020809104026020016040519081016040528092919081815260200182805461096d9061152a565b80156109b85780601f1061098f576101008083540402835291602001916109b8565b820191905f5260205f20905b81548152906001019060200180831161099b57829003601f168201915b505050505081526020016004820154815260200160058201548152602001600682015f9054906101000a900460ff161515151581526020016006820160019054906101000a900460ff161515151581525050815260200190600101906107d6565b50505050905090565b5f5f5f5f8573ffffffffffffffffffffffffffffffffffffffff1673ffffffffffffffffffffffffffffffffffffffff1681526020019081526020015f208381548110610a7257610a716112b6565b5b905f5260205f209060070201604051806101000160405290815f82015f9054906101000a900473ffffffffffffffffffffffffffffffffffffffff1673ffffffffffffffffffffffffffffffffffffffff1673ffffffffffffffffffffffffffffffffffffffff168152602001600182015f9054906101000a900473ffffffffffffffffffffffffffffffffffffffff1673ffffffffffffffffffffffffffffffffffffffff1673ffffffffffffffffffffffffffffffffffffffff168152602001600282018054610b439061152a565b80601f0160208091040260200160405190810160405280929190818152602001828054610b6f9061152a565b8015610bba5780601f10610b9157610100808354040283529160200191610bba565b820191905f5260205f20905b815481529060010190602001808311610b9d57829003601f168201915b50505050508152602001600382018054610bd39061152a565b80601f0160208091040260200160405190810160405280929190818152602001828054610bff9061152a565b8015610c4a5780601f10610c2157610100808354040283529160200191610c4a565b820191905f5260205f20905b815481529060010190602001808311610c2d57829003601f168201915b505050505081526020016004820154815260200160058201548152602001600682015f9054906101000a900460ff161515151581526020016006820160019054906101000a900460ff16151515158152505090508060c001518015610cb157508060e00151155b8015610cc157508060a001514211155b15610cd0576001915050610cd5565b5f9150505b92915050565b5f604051905090565b5f5ffd5b5f5ffd5b5f819050919050565b610cfe81610cec565b8114610d08575f5ffd5b50565b5f81359050610d1981610cf5565b92915050565b5f60208284031215610d3457610d33610ce4565b5b5f610d4184828501610d0b565b91505092915050565b5f73ffffffffffffffffffffffffffffffffffffffff82169050919050565b5f819050919050565b5f610d8c610d87610d8284610d4a565b610d69565b610d4a565b9050919050565b5f610d9d82610d72565b9050919050565b5f610dae82610d93565b9050919050565b610dbe81610da4565b82525050565b5f602082019050610dd75f830184610db5565b92915050565b5f610de782610d4a565b9050919050565b610df781610ddd565b8114610e01575f5ffd5b50565b5f81359050610e1281610dee565b92915050565b5f5ffd5b5f5ffd5b5f601f19601f8301169050919050565b7f4e487b71000000000000000000000000000000000000000000000000000000005f52604160045260245ffd5b610e6682610e20565b810181811067ffffffffffffffff82111715610e8557610e84610e30565b5b80604052505050565b5f610e97610cdb565b9050610ea38282610e5d565b919050565b5f67ffffffffffffffff821115610ec257610ec1610e30565b5b610ecb82610e20565b9050602081019050919050565b828183375f83830152505050565b5f610ef8610ef384610ea8565b610e8e565b905082815260208101848484011115610f1457610f13610e1c565b5b610f1f848285610ed8565b509392505050565b5f82601f830112610f3b57610f3a610e18565b5b8135610f4b848260208601610ee6565b91505092915050565b5f5f5f5f60808587031215610f6c57610f6b610ce4565b5b5f610f7987828801610e04565b945050602085013567ffffffffffffffff811115610f9a57610f99610ce8565b5b610fa687828801610f27565b935050604085013567ffffffffffffffff811115610fc757610fc6610ce8565b5b610fd387828801610f27565b9250506060610fe487828801610d0b565b91505092959194509250565b5f610ffa82610d93565b9050919050565b61100a81610ff0565b82525050565b5f6020820190506110235f830184611001565b92915050565b5f81519050919050565b5f82825260208201905092915050565b5f819050602082019050919050565b61105b81610ddd565b82525050565b5f81519050919050565b5f82825260208201905092915050565b8281835e5f83830152505050565b5f61109382611061565b61109d818561106b565b93506110ad81856020860161107b565b6110b681610e20565b840191505092915050565b6110ca81610cec565b82525050565b5f8115159050919050565b6110e4816110d0565b82525050565b5f61010083015f8301516111005f860182611052565b5060208301516111136020860182611052565b506040830151848203604086015261112b8282611089565b915050606083015184820360608601526111458282611089565b915050608083015161115a60808601826110c1565b5060a083015161116d60a08601826110c1565b5060c083015161118060c08601826110db565b5060e083015161119360e08601826110db565b508091505092915050565b5f6111a983836110ea565b905092915050565b5f602082019050919050565b5f6111c782611029565b6111d18185611033565b9350836020820285016111e385611043565b805f5b8581101561121e57848403895281516111ff858261119e565b945061120a836111b1565b925060208a019950506001810190506111e6565b50829750879550505050505092915050565b5f6020820190508181035f83015261124881846111bd565b905092915050565b5f5f6040838503121561126657611265610ce4565b5b5f61127385828601610e04565b925050602061128485828601610d0b565b9150509250929050565b611297816110d0565b82525050565b5f6020820190506112b05f83018461128e565b92915050565b7f4e487b71000000000000000000000000000000000000000000000000000000005f52603260045260245ffd5b6112ec81610ddd565b82525050565b6112fb81610cec565b82525050565b5f6040820190506113145f8301856112e3565b61132160208301846112f2565b9392505050565b5f82825260208201905092915050565b7f416c7265616479207265766f6b656400000000000000000000000000000000005f82015250565b5f61136c600f83611328565b915061137782611338565b602082019050919050565b5f6020820190508181035f83015261139981611360565b9050919050565b5f6040820190506113b35f8301856112e3565b6113c060208301846112e3565b9392505050565b5f6020820190506113da5f8301846112e3565b92915050565b6113e9816110d0565b81146113f3575f5ffd5b50565b5f81519050611404816113e0565b92915050565b5f6020828403121561141f5761141e610ce4565b5b5f61142c848285016113f6565b91505092915050565b7f466964756369617279206e6f7420617070726f766564000000000000000000005f82015250565b5f611469601683611328565b915061147482611435565b602082019050919050565b5f6020820190508181035f8301526114968161145d565b9050919050565b7f4e487b71000000000000000000000000000000000000000000000000000000005f52601160045260245ffd5b5f6114d482610cec565b91506114df83610cec565b92508282019050808211156114f7576114f661149d565b5b92915050565b7f4e487b71000000000000000000000000000000000000000000000000000000005f52602260045260245ffd5b5f600282049050600182168061154157607f821691505b602082108103611554576115536114fd565b5b50919050565b5f819050815f5260205f209050919050565b5f6020601f8301049050919050565b5f82821b905092915050565b5f600883026115b67fffffffffffffffffffffffffffffffffffffffffffffffffffffffffffffffff8261157b565b6115c0868361157b565b95508019841693508086168417925050509392505050565b5f6115f26115ed6115e884610cec565b610d69565b610cec565b9050919050565b5f819050919050565b61160b836115d8565b61161f611617826115f9565b848454611587565b825550505050565b5f5f905090565b611636611627565b611641818484611602565b505050565b5b81811015611664576116595f8261162e565b600181019050611647565b5050565b601f8211156116a95761167a8161155a565b6116838461156c565b81016020851015611692578190505b6116a661169e8561156c565b830182611646565b50505b505050565b5f82821c905092915050565b5f6116c95f19846008026116ae565b1980831691505092915050565b5f6116e183836116ba565b9150826002028217905092915050565b6116fa82611061565b67ffffffffffffffff81111561171357611712610e30565b5b61171d825461152a565b611728828285611668565b5f60209050601f831160018114611759575f8415611747578287015190505b61175185826116d6565b8655506117b8565b601f1984166117678661155a565b5f5b8281101561178e57848901518255600182019150602085019450602081019050611769565b868310156117ab57848901516117a7601f8916826116ba565b8355505b6001600288020188555050505b505050505050565b5f6117ca82611061565b6117d48185611328565b93506117e481856020860161107b565b6117ed81610e20565b840191505092915050565b5f60808201905061180b5f8301876112e3565b61181860208301866112e3565b818103604083015261182a81856117c0565b905061183960608301846112f2565b9594505050505056fea2646970667358221220288bc73f098fb4e434b46512560e51b0b149b4c6549f2830938356c6207df99a64736f6c634300081c0033",
  "linkReferences": {},
  "deployedLinkReferences": {},
  "immutableReferences": {},
  "inputSourceName": "project/contracts/ConsentManager.sol",
  "buildInfoId": "solc-0_8_28-aa35902d2c39e80aba8a06bd6404e0280af89526"
}