{"project/contracts/AuditLog.sol":{"AuditLog":{"abi":[{"anonymous":false,"inputs":[{"indexed":true,"internalType":"address","name":"dataPrincipal","type":"address"},{"indexed":true,"internalType":"address","name":"fiduciary","type":"address"},{"indexed":false,"internalType":"string","name":"purpose","type":"string"},{"indexed":false,"internalType":"uint256","name":"expiry","type":"uint256"}],"name":"ConsentGranted","type":"event"},{"anonymous":false,"inputs":[{"indexed":true,"internalType":"address","name":"dataPrincipal","type":"address"},{"indexed":true,"internalType":"address","name":"fiduciary","type":"address"}],"name":"ConsentRevoked","type":"event"},{"anonymous":false,"inputs":[{"indexed":true,"internalType":"address","name":"dataPrincipal","type":"address"},{"indexed":true,"internalType":"address","name":"fiduciary","type":"address"},{"indexed":false,"internalType":"string","name":"purpose","type":"string"},{"indexed":false,"internalType":"uint256","name":"timestamp","type":"uint256"}],"name":"DataAccessed","type":"event"},{"anonymous":false,"inputs":[{"indexed":true,"internalType":"address","name":"dataPrincipal","type":"address"},{"indexed":false,"internalType":"uint256","name":"timestamp","type":"uint256"}],"name":"ErasureRequested","type":"event"},{"inputs":[{"internalType":"address","name":"_principal","type":"address"},{"internalType":"address","name":"_fiduciary","type":"address"},{"internalType":"string","name":"_purpose","type":"string"},{"internalType":"uint256","name":"_expiry","type":"uint256"}],"name":"logConsentGranted","outputs":[],"stateMutability":"nonpayable","type":"function"},{"inputs":[{"internalType":"address","name":"_principal","type":"address"},{"internalType":"address","name":"_fiduciary","type":"address"}],"name":"logConsentRevoked","outputs":[],"stateMutability":"nonpayable","type":"function"},{"inputs":[{"internalType":"address","name":"_principal","type":"address"},{"internalType":"address","name":"_fiduciary","type":"address"},{"internalType":"string","name":"_purpose","type":"string"},{"internalType":"uint256","name":"_timestamp","type":"uint256"}],"name":"logDataAccessed","outputs":[],"stateMutability":"nonpayable","type":"function"},{"inputs":[{"internalType":"address","name":"_principal","type":"address"},{"internalType":"uint256","name":"_timestamp","type":"uint256"}],"name":"logErasureRequested","outputs":[],"stateMutability":"nonpayable","type":"function"}],"evm":{"bytecode":{"linkReferences":{},"object":"6080604052348015600e575f5ffd5b5061060a8061001c5f395ff3fe608060405234801561000f575f5ffd5b506004361061004a575f3560e01c8063506373501461004e57806372a4dcbe1461006a578063a3b233e514610086578063df0a1822146100a2575b5f5ffd5b61006860048036038101906100639190610422565b6100be565b005b610084600480360381019061007f91906104a2565b61012b565b005b6100a0600480360381019061009b9190610422565b61017d565b005b6100bc60048036038101906100b791906104e0565b6101ea565b005b8273ffffffffffffffffffffffffffffffffffffffff168473ffffffffffffffffffffffffffffffffffffffff167f3cc5888a7d8cfcbbff8cb815b1e745f2e7aa41c13c39502993c4defa007c18d3848460405161011d92919061058d565b60405180910390a350505050565b8173ffffffffffffffffffffffffffffffffffffffff167faf9658ebe9237a57bbc2e1f0fce51838bd03018ee777182ec5bfc9277a8467568260405161017191906105bb565b60405180910390a25050565b8273ffffffffffffffffffffffffffffffffffffffff168473ffffffffffffffffffffffffffffffffffffffff167f60059a1ef0416256f2a67d179abb569f5b6680e24ce411691b3a6d8d63a7ccea84846040516101dc92919061058d565b60405180910390a350505050565b8073ffffffffffffffffffffffffffffffffffffffff168273ffffffffffffffffffffffffffffffffffffffff167febecee2d3f2ea272f73dd9d9ccc0bacd11280d61240332cbcd8a68173ae5cc2c60405160405180910390a35050565b5f604051905090565b5f5ffd5b5f5ffd5b5f73ffffffffffffffffffffffffffffffffffffffff82169050919050565b5f61028282610259565b9050919050565b61029281610278565b811461029c575f5ffd5b50565b5f813590506102ad81610289565b92915050565b5f5ffd5b5f5ffd5b5f601f19601f8301169050919050565b7f4e487b71000000000000000000000000000000000000000000000000000000005f52604160045260245ffd5b610301826102bb565b810181811067ffffffffffffffff821117156103205761031f6102cb565b5b80604052505050565b5f610332610248565b905061033e82826102f8565b919050565b5f67ffffffffffffffff82111561035d5761035c6102cb565b5b610366826102bb565b9050602081019050919050565b828183375f83830152505050565b5f61039361038e84610343565b610329565b9050828152602081018484840111156103af576103ae6102b7565b5b6103ba848285610373565b509392505050565b5f82601f8301126103d6576103d56102b3565b5b81356103e6848260208601610381565b91505092915050565b5f819050919050565b610401816103ef565b811461040b575f5ffd5b50565b5f8135905061041c816103f8565b92915050565b5f5f5f5f6080858703121561043a57610439610251565b5b5f6104478782880161029f565b94505060206104588782880161029f565b935050604085013567ffffffffffffffff81111561047957610478610255565b5b610485878288016103c2565b92505060606104968782880161040e565b91505092959194509250565b5f5f604083850312156104b8576104b7610251565b5b5f6104c58582860161029f565b92505060206104d68582860161040e565b9150509250929050565b5f5f604083850312156104f6576104f5610251565b5b5f6105038582860161029f565b92505060206105148582860161029f565b9150509250929050565b5f81519050919050565b5f82825260208201905092915050565b8281835e5f83830152505050565b5f6105508261051e565b61055a8185610528565b935061056a818560208601610538565b610573816102bb565b840191505092915050565b610587816103ef565b82525050565b5f6040820190508181035f8301526105a58185610546565b90506105b4602083018461057e565b9392505050565b5f6020820190506105ce5f83018461057e565b9291505056fea2646970667358221220302c29159196e1cf03cc44cf628e893aa2a052e1aea74eb0405e01edbf689e0c64736f6c634300081c0033","opcodes":"PUSH1 0x80 PUSH1 0x40 MSTORE CALLVALUE DUP1 ISZERO PUSH1 0xE JUMPI PUSH0 PUSH0 REVERT JUMPDEST POP PUSH2 0x60A DUP1 PUSH2 0x1C PUSH0 CODECOPY PUSH0 RETURN INVALID PUSH1 0x80 PUSH1 0x40 MSTORE CALLVALUE DUP1 ISZERO PUSH2 0xF JUMPI PUSH0 PUSH0 REVERT JUMPDEST POP PUSH1 0x4 CALLDATASIZE LT PUSH2 0x4A JUMPI PUSH0 CALLDATALOAD PUSH1 0xE0 SHR DUP1 PUSH4 0x50637350 EQ PUSH2 0x4E JUMPI DUP1 PUSH4 0x72A4DCBE EQ PUSH2 0x6A JUMPI DUP1 PUSH4 0xA3B233E5 EQ PUSH2 0x86 JUMPI DUP1 PUSH4 0xDF0A1822 EQ PUSH2 0xA2 JUMPI JUMPDEST PUSH0 PUSH0 REVERT JUMPDEST PUSH2 0x68 PUSH1 0x4 DUP1 CALLDATASIZE SUB DUP2 ADD SWAP1 PUSH2 0x63 SWAP2 SWAP1 PUSH2 0x422 JUMP JUMPDEST PUSH2 0xBE JUMP JUMPDEST STOP JUMPDEST PUSH2 0x84 PUSH1 0x4 DUP1 CALLDATASIZE SUB DUP2 ADD SWAP1 PUSH2 0x7F SWAP2 SWAP1 PUSH2 0x4A2 JUMP JUMPDEST PUSH2 0x12B JUMP JUMPDEST STOP JUMPDEST PUSH2 0xA0 PUSH1 0x4 DUP1 CALLDATASIZE SUB DUP2 ADD SWAP1 PUSH2 0x9B SWAP2 SWAP1 PUSH2 0x422 JUMP JUMPDEST PUSH2 0x17D JUMP JUMPDEST STOP JUMPDEST PUSH2 0xBC PUSH1 0x4 DUP1 CALLDATASIZE SUB DUP2 ADD SWAP1 PUSH2 0xB7 SWAP2 SWAP1 PUSH2 0x4E0 JUMP JUMPDEST PUSH2 0x1EA JUMP JUMPDEST STOP JUMPDEST DUP3 PUSH20 0xFFFFFFFFFFFFFFFFFFFFFFFFFFFFFFFFFFFFFFFF AND DUP5 PUSH20 0xFFFFFFFFFFFFFFFFFFFFFFFFFFFFFFFFFFFFFFFF AND PUSH32 0x3CC5888A7D8CFCBBFF8CB815B1E745F2E7AA41C13C39502993C4DEFA007C18D3 DUP5 DUP5 PUSH1 0x40 MLOAD PUSH2 0x11D SWAP3 SWAP2 SWAP1 PUSH2 0x58D JUMP JUMPDEST PUSH1 0x40 MLOAD DUP1 SWAP2 SUB SWAP1 LOG3 POP POP POP POP JUMP JUMPDEST DUP2 PUSH20 0xFFFFFFFFFFFFFFFFFFFFFFFFFFFFFFFFFFFFFFFF AND PUSH32 0xAF9658EBE9237A57BBC2E1F0FCE51838BD03018EE777182EC5BFC9277A846756 DUP3 PUSH1 0x40 MLOAD PUSH2 0x171 SWAP2 SWAP1 PUSH2 0x5BB JUMP JUMPDEST PUSH1 0x40 MLOAD DUP1 SWAP2 SUB SWAP1 LOG2 POP POP JUMP JUMPDEST DUP3 PUSH20 0xFFFFFFFFFFFFFFFFFFFFFFFFFFFFFFFFFFFFFFFF AND DUP5 PUSH20 0xFFFFFFFFFFFFFFFFFFFFFFFFFFFFFFFFFFFFFFFF AND PUSH32 0x60059A1EF0416256F2A67D179ABB569F5B6680E24CE411691B3A6D8D63A7CCEA DUP5 DUP5 PUSH1 0x40 MLOAD PUSH2 0x1DC SWAP3 SWAP2 SWAP1 PUSH2 0x58D JUMP JUMPDEST PUSH1 0x40 MLOAD DUP1 SWAP2 SUB SWAP1 LOG3 POP POP POP POP JUMP JUMPDEST DUP1 PUSH20 0xFFFFFFFFFFFFFFFFFFFFFFFFFFFFFFFFFFFFFFFF AND DUP3 PUSH20 0xFFFFFFFFFFFFFFFFFFFFFFFFFFFFFFFFFFFFFFFF AND PUSH32 0xEBECEE2D3F2EA272F73DD9D9CCC0BACD11280D61240332CBCD8A68173AE5CC2C PUSH1 0x40 MLOAD PUSH1 0x40 MLOAD DUP1 SWAP2 SUB SWAP1 LOG3 POP POP JUMP JUMPDEST PUSH0 PUSH1 0x40 MLOAD SWAP1 POP SWAP1 JUMP JUMPDEST PUSH0 PUSH0 REVERT JUMPDEST PUSH0 PUSH0 REVERT JUMPDEST PUSH0 PUSH20 0xFFFFFFFFFFFFFFFFFFFFFFFFFFFFFFFFFFFFFFFF DUP3 AND SWAP1 POP SWAP2 SWAP1 POP JUMP JUMPDEST PUSH0 PUSH2 0x282 DUP3 PUSH2 0x259 JUMP JUMPDEST SWAP1 POP SWAP2 SWAP1 POP JUMP JUMPDEST PUSH2 0x292 DUP2 PUSH2 0x278 JUMP JUMPDEST DUP2 EQ PUSH2 0x29C JUMPI PUSH0 PUSH0 REVERT JUMPDEST POP JUMP JUMPDEST PUSH0 DUP2 CALLDATALOAD SWAP1 POP PUSH2 0x2AD DUP2 PUSH2 0x289 JUMP JUMPDEST SWAP3 SWAP2 POP POP JUMP JUMPDEST PUSH0 PUSH0 REVERT JUMPDEST PUSH0 PUSH0 REVERT JUMPDEST PUSH0 PUSH1 0x1F NOT PUSH1 0x1F DUP4 ADD AND SWAP1 POP SWAP2 SWAP1 POP JUMP JUMPDEST PUSH32 0x4E487B7100000000000000000000000000000000000000000000000000000000 PUSH0 MSTORE PUSH1 0x41 PUSH1 0x4 MSTORE PUSH1 0x24 PUSH0 REVERT JUMPDEST PUSH2 0x301 DUP3 PUSH2 0x2BB JUMP JUMPDEST DUP2 ADD DUP2 DUP2 LT PUSH8 0xFFFFFFFFFFFFFFFF DUP3 GT OR ISZERO PUSH2 0x320 JUMPI PUSH2 0x31F PUSH2 0x2CB JUMP JUMPDEST JUMPDEST DUP1 PUSH1 0x40 MSTORE POP POP POP JUMP JUMPDEST PUSH0 PUSH2 0x332 PUSH2 0x248 JUMP JUMPDEST SWAP1 POP PUSH2 0x33E DUP3 DUP3 PUSH2 0x2F8 JUMP JUMPDEST SWAP2 SWAP1 POP JUMP JUMPDEST PUSH0 PUSH8 0xFFFFFFFFFFFFFFFF DUP3 GT ISZERO PUSH2 0x35D JUMPI PUSH2 0x35C PUSH2 0x2CB JUMP JUMPDEST JUMPDEST PUSH2 0x366 DUP3 PUSH2 0x2BB JUMP JUMPDEST SWAP1 POP PUSH1 0x20 DUP2 ADD SWAP1 POP SWAP2 SWAP1 POP JUMP JUMPDEST DUP3 DUP2 DUP4 CALLDATACOPY PUSH0 DUP4 DUP4 ADD MSTORE POP POP POP JUMP JUMPDEST PUSH0 PUSH2 0x393 PUSH2 0x38E DUP5 PUSH2 0x343 JUMP JUMPDEST PUSH2 0x329 JUMP JUMPDEST SWAP1 POP DUP3 DUP2 MSTORE PUSH1 0x20 DUP2 ADD DUP5 DUP5 DUP5 ADD GT ISZERO PUSH2 0x3AF JUMPI PUSH2 0x3AE PUSH2 0x2B7 JUMP JUMPDEST JUMPDEST PUSH2 0x3BA DUP5 DUP3 DUP6 PUSH2 0x373 JUMP JUMPDEST POP SWAP4 SWAP3 POP POP POP JUMP JUMPDEST PUSH0 DUP3 PUSH1 0x1F DUP4 ADD SLT PUSH2 0x3D6 JUMPI PUSH2 0x3D5 PUSH2 0x2B3 JUMP JUMPDEST JUMPDEST DUP2 CALLDATALOAD PUSH2 0x3E6 DUP5 DUP3 PUSH1 0x20 DUP7 ADD PUSH2 0x381 JUMP JUMPDEST SWAP2 POP POP SWAP3 SWAP2 POP POP JUMP JUMPDEST PUSH0 DUP2 SWAP1 POP SWAP2 SWAP1 POP JUMP JUMPDEST PUSH2 0x401 DUP2 PUSH2 0x3EF JUMP JUMPDEST DUP2 EQ PUSH2 0x40B JUMPI PUSH0 PUSH0 REVERT JUMPDEST POP JUMP JUMPDEST PUSH0 DUP2 CALLDATALOAD SWAP1 POP PUSH2 0x41C DUP2 PUSH2 0x3F8 JUMP JUMPDEST SWAP3 SWAP2 POP POP JUMP JUMPDEST PUSH0 PUSH0 PUSH0 PUSH0 PUSH1 0x80 DUP6 DUP8 SUB SLT ISZERO PUSH2 0x43A JUMPI PUSH2 0x439 PUSH2 0x251 JUMP JUMPDEST JUMPDEST PUSH0 PUSH2 0x447 DUP8 DUP3 DUP9 ADD PUSH2 0x29F JUMP JUMPDEST SWAP5 POP POP PUSH1 0x20 PUSH2 0x458 DUP8 DUP3 DUP9 ADD PUSH2 0x29F JUMP JUMPDEST SWAP4 POP POP PUSH1 0x40 DUP6 ADD CALLDATALOAD PUSH8 0xFFFFFFFFFFFFFFFF DUP2 GT ISZERO PUSH2 0x479 JUMPI PUSH2 0x478 PUSH2 0x255 JUMP JUMPDEST JUMPDEST PUSH2 0x485 DUP8 DUP3 DUP9 ADD PUSH2 0x3C2 JUMP JUMPDEST SWAP3 POP POP PUSH1 0x60 PUSH2 0x496 DUP8 DUP3 DUP9 ADD PUSH2 0x40E JUMP JUMPDEST SWAP2 POP POP SWAP3 SWAP6 SWAP2 SWAP5 POP SWAP3 POP JUMP JUMPDEST PUSH0 PUSH0 PUSH1 0x40 DUP4 DUP6 SUB SLT ISZERO PUSH2 0x4B8 JUMPI PUSH2 0x4B7 PUSH2 0x251 JUMP JUMPDEST JUMPDEST PUSH0 PUSH2 0x4C5 DUP6 DUP3 DUP7 ADD PUSH2 0x29F JUMP JUMPDEST SWAP3 POP POP PUSH1 0x20 PUSH2 0x4D6 DUP6 DUP3 DUP7 ADD PUSH2 0x40E JUMP JUMPDEST SWAP2 POP POP SWAP3 POP SWAP3 SWAP1 POP JUMP JUMPDEST PUSH0 PUSH0 PUSH1 0x40 DUP4 DUP6 SUB SLT ISZERO PUSH2 0x4F6 JUMPI PUSH2 0x4F5 PUSH2 0x251 JUMP JUMPDEST JUMPDEST PUSH0 PUSH2 0x503 DUP6 DUP3 DUP7 ADD PUSH2 0x29F JUMP JUMPDEST SWAP3 POP POP PUSH1 0x20 PUSH2 0x514 DUP6 DUP3 DUP7 ADD PUSH2 0x29F JUMP JUMPDEST SWAP2 POP POP SWAP3 POP SWAP3 SWAP1 POP JUMP JUMPDEST PUSH0 DUP2 MLOAD SWAP1 POP SWAP2 SWAP1 POP JUMP JUMPDEST PUSH0 DUP3 DUP3 MSTORE PUSH1 0x20 DUP3 ADD SWAP1 POP SWAP3 SWAP2 POP POP JUMP JUMPDEST DUP3 DUP2 DUP4 MCOPY PUSH0 DUP4 DUP4 ADD MSTORE POP POP POP JUMP JUMPDEST PUSH0 PUSH2 0x550 DUP3 PUSH2 0x51E JUMP JUMPDEST PUSH2 0x55A DUP2 DUP6 PUSH2 0x528 JUMP JUMPDEST SWAP4 POP PUSH2 0x56A DUP2 DUP6 PUSH1 0x20 DUP7 ADD PUSH2 0x538 JUMP JUMPDEST PUSH2 0x573 DUP2 PUSH2 0x2BB JUMP JUMPDEST DUP5 ADD SWAP2 POP POP SWAP3 SWAP2 POP POP JUMP JUMPDEST PUSH2 0x587 DUP2 PUSH2 0x3EF JUMP JUMPDEST DUP3 MSTORE POP POP JUMP JUMPDEST PUSH0 PUSH1 0x40 DUP3 ADD SWAP1 POP DUP2 DUP2 SUB PUSH0 DUP4 ADD MSTORE PUSH2 0x5A5 DUP2 DUP6 PUSH2 0x546 JUMP JUMPDEST SWAP1 POP PUSH2 0x5B4 PUSH1 0x20 DUP4 ADD DUP5 PUSH2 0x57E JUMP JUMPDEST SWAP4 SWAP3 POP POP POP JUMP JUMPDEST PUSH0 PUSH1 0x20 DUP3 ADD SWAP1 POP PUSH2 0x5CE PUSH0 DUP4 ADD DUP5 PUSH2 0x57E JUMP JUMPDEST SWAP3 SWAP2 POP POP JUMP INVALID LOG2 PUSH5 0x6970667358 0x22 SLT KECCAK256 ADDRESS 0x2C 0x29 ISZERO SWAP2 SWAP7 0xE1 0xCF SUB 0xCC PREVRANDAO 0xCF PUSH3 0x8E893A LOG2 LOG0 MSTORE 0xE1 0xAE 0xA7 0x4E 0xB0 BLOCKHASH MCOPY ADD 0xED 0xBF PUSH9 0x9E0C64736F6C634300 ADDMOD SHR STOP CALLER "},"methodIdentifiers":{"logConsentGranted(address,address,string,uint256)":"a3b233e5","logConsentRevoked(address,address)":"df0a1822","logDataAccessed(address,address,string,uint256)":"50637350","logErasureRequested(address,uint256)":"72a4dcbe"}}}}}