{"project/contracts/ConsentManager.sol":{"ConsentManager":{"abi":[{"inputs":[{"internalType":"address","name":"_registry","type":"address"},{"internalType":"address","name":"_audit","type":"address"}],"stateMutability":"nonpayable","type":"constructor"},{"inputs":[],"name":"audit","outputs":[{"internalType":"contract AuditLog","name":"","type":"address"}],"stateMutability":"view","type":"function"},{"inputs":[],"name":"getMyConsents","outputs":[{"components":[{"internalType":"address","name":"dataPrincipal","type":"address"},{"internalType":"address","name":"dataFiduciary","type":"address"},{"internalType":"string","name":"purpose","type":"string"},{"internalType":"string","name":"dataHash","type":"string"},{"internalType":"uint256","name":"grantedAt","type":"uint256"},{"internalType":"uint256","name":"expiry","type":"uint256"},{"internalType":"bool","name":"isActive","type":"bool"},{"internalType":"bool","name":"erased","type":"bool"}],"internalType":"struct ConsentManager.Consent[]","name":"","type":"tuple[]"}],"stateMutability":"view","type":"function"},{"inputs":[{"internalType":"address","name":"_fiduciary","type":"address"},{"internalType":"string","name":"_purpose","type":"string"},{"internalType":"string","name":"_dataHash","type":"string"},{"internalType":"uint256","name":"_durationInSeconds","type":"uint256"}],"name":"grantConsent","outputs":[],"stateMutability":"nonpayable","type":"function"},{"inputs":[],"name":"registry","outputs":[{"internalType":"contract DataFiduciaryRegistry","name":"","type":"address"}],"stateMutability":"view","type":"function"},{"inputs":[{"internalType":"uint256","name":"index","type":"uint256"}],"name":"requestErasure","outputs":[],"stateMutability":"nonpayable","type":"function"},{"inputs":[{"internalType":"uint256","name":"index","type":"uint256"}],"name":"revokeConsent","outputs":[],"stateMutability":"nonpayable","type":"function"},{"inputs":[{"internalType":"address","name":"_principal","type":"address"},{"internalType":"uint256","name":"index","type":"uint256"}],"name":"validateConsent","outputs":[{"internalType":"bool","name":"","type":"bool"}],"stateMutability":"view","type":"function"}],"evm":{"bytecode":{"linkReferences":{},"object":"608060405234801561000f575f5ffd5b506040516119d93803806119d983398181016040528101906100319190610116565b8160015f6101000a81548173ffffffffffffffffffffffffffffffffffffffff021916908373ffffffffffffffffffffffffffffffffffffffff1602179055508060025f6101000a81548173ffffffffffffffffffffffffffffffffffffffff021916908373ffffffffffffffffffffffffffffffffffffffff1602179055505050610154565b5f5ffd5b5f73ffffffffffffffffffffffffffffffffffffffff82169050919050565b5f6100e5826100bc565b9050919050565b6100f5816100db565b81146100ff575f5ffd5b50565b5f81519050610110816100ec565b92915050565b5f5f6040838503121561012c5761012b6100b8565b5b5f61013985828601610102565b925050602061014a85828601610102565b9150509250929050565b611878806101615f395ff3fe608060405234801561000f575f5ffd5b506004361061007b575f3560e01c80634448e28f116100595780634448e28f146100d55780637b103999146100f15780637cc36dee1461010f578063d46038ec1461012d5761007b565b806309e422e71461007f57806316a0042c1461009b5780631ddc0ef0146100b7575b5f5ffd5b61009960048036038101906100949190610d1f565b61015d565b005b6100b560048036038101906100b09190610d1f565b610264565b005b6100bf6103dc565b6040516100cc9190610dc4565b60405180910390f35b6100ef60048036038101906100ea9190610f54565b610401565b005b6100f9610754565b6040516101069190611010565b60405180910390f35b610117610779565b6040516101249190611230565b60405180910390f35b61014760048036038101906101429190611250565b610a22565b604051610154919061129d565b60405180910390f35b5f5f5f3373ffffffffffffffffffffffffffffffffffffffff1673ffffffffffffffffffffffffffffffffffffffff1681526020019081526020015f2082815481106101ac576101ab6112b6565b5b905f5260205f209060070201905060018160060160016101000a81548160ff02191690831515021790555060025f9054906101000a900473ffffffffffffffffffffffffffffffffffffffff1673ffffffffffffffffffffffffffffffffffffffff166372a4dcbe33426040518363ffffffff1660e01b8152600401610233929190611301565b5f604051808303815f87803b15801561024a575f5ffd5b505af115801561025c573d5f5f3e3d5ffd5b505050505050565b5f5f5f3373ffffffffffffffffffffffffffffffffffffffff1673ffffffffffffffffffffffffffffffffffffffff1681526020019081526020015f2082815481106102b3576102b26112b6565b5b905f5260205f2090600702019050806006015f9054906101000a900460ff16610311576040517f08c379a000000000000000000000000000000000000000000000000000000000815260040161030890611382565b60405180910390fd5b5f816006015f6101000a81548160ff02191690831515021790555060025f9054906101000a900473ffffffffffffffffffffffffffffffffffffffff1673ffffffffffffffffffffffffffffffffffffffff1663df0a182233836001015f9054906101000a900473ffffffffffffffffffffffffffffffffffffffff166040518363ffffffff1660e01b81526004016103ab9291906113a0565b5f604051808303815f87803b1580156103c2575f5ffd5b505af11580156103d4573d5f5f3e3d5ffd5b505050505050565b60025f9054906101000a900473ffffffffffffffffffffffffffffffffffffffff1681565b60015f9054906101000a900473ffffffffffffffffffffffffffffffffffffffff1673ffffffffffffffffffffffffffffffffffffffff1663673448dd856040518263ffffffff1660e01b815260040161045b91906113c7565b602060405180830381865afa158015610476573d5f5f3e3d5ffd5b505050506040513d601f19601f8201168201806040525081019061049a919061140a565b6104d9576040517f08c379a00000000000000000000000000000000000000000000000000000000081526004016104d09061147f565b60405180910390fd5b5f81426104e691906114ca565b90505f5f3373ffffffffffffffffffffffffffffffffffffffff1673ffffffffffffffffffffffffffffffffffffffff1681526020019081526020015f206040518061010001604052803373ffffffffffffffffffffffffffffffffffffffff1681526020018773ffffffffffffffffffffffffffffffffffffffff1681526020018681526020018581526020014281526020018381526020016001151581526020015f1515815250908060018154018082558091505060019003905f5260205f2090600702015f909190919091505f820151815f015f6101000a81548173ffffffffffffffffffffffffffffffffffffffff021916908373ffffffffffffffffffffffffffffffffffffffff1602179055506020820151816001015f6101000a81548173ffffffffffffffffffffffffffffffffffffffff021916908373ffffffffffffffffffffffffffffffffffffffff160217905550604082015181600201908161065491906116f1565b50606082015181600301908161066a91906116f1565b506080820151816004015560a0820151816005015560c0820151816006015f6101000a81548160ff02191690831515021790555060e08201518160060160016101000a81548160ff021916908315150217905550505060025f9054906101000a900473ffffffffffffffffffffffffffffffffffffffff1673ffffffffffffffffffffffffffffffffffffffff1663a3b233e5338787856040518563ffffffff1660e01b815260040161072094939291906117f8565b5f604051808303815f87803b158015610737575f5ffd5b505af1158015610749573d5f5f3e3d5ffd5b505050505050505050565b60015f9054906101000a900473ffffffffffffffffffffffffffffffffffffffff1681565b60605f5f3373ffffffffffffffffffffffffffffffffffffffff1673ffffffffffffffffffffffffffffffffffffffff1681526020019081526020015f20805480602002602001604051908101604052809291908181526020015f905b82821015610a19578382905f5260205f209060070201604051806101000160405290815f82015f9054906101000a900473ffffffffffffffffffffffffffffffffffffffff1673ffffffffffffffffffffffffffffffffffffffff1673ffffffffffffffffffffffffffffffffffffffff168152602001600182015f9054906101000a900473ffffffffffffffffffffffffffffffffffffffff1673ffffffffffffffffffffffffffffffffffffffff1673ffffffffffffffffffffffffffffffffffffffff1681526020016002820180546108b19061152a565b80601f01602080910402602001604051908101604052809291908181526020018280546108dd9061152a565b80156109285780601f106108ff57610100808354040283529160200191610928565b820191905f5260205f20905b81548152906001019060200180831161090b57829003601f168201915b505050505081526020016003820180546109419061152a565b80601f016020809104026020016040519081016040528092919081815260200182805461096d9061152a565b80156109b85780601f1061098f576101008083540402835291602001916109b8565b820191905f5260205f20905b81548152906001019060200180831161099b57829003601f168201915b505050505081526020016004820154815260200160058201548152602001600682015f9054906101000a900460ff161515151581526020016006820160019054906101000a900460ff161515151581525050815260200190600101906107d6565b50505050905090565b5f5f5f5f8573ffffffffffffffffffffffffffffffffffffffff1673ffffffffffffffffffffffffffffffffffffffff1681526020019081526020015f208381548110610a7257610a716112b6565b5b905f5260205f209060070201604051806101000160405290815f82015f9054906101000a900473ffffffffffffffffffffffffffffffffffffffff1673ffffffffffffffffffffffffffffffffffffffff1673ffffffffffffffffffffffffffffffffffffffff168152602001600182015f9054906101000a900473ffffffffffffffffffffffffffffffffffffffff1673ffffffffffffffffffffffffffffffffffffffff1673ffffffffffffffffffffffffffffffffffffffff168152602001600282018054610b439061152a565b80601f0160208091040260200160405190810160405280929190818152602001828054610b6f9061152a565b8015610bba5780601f10610b9157610100808354040283529160200191610bba565b820191905f5260205f20905b815481529060010190602001808311610b9d57829003601f168201915b50505050508152602001600382018054610bd39061152a565b80601f0160208091040260200160405190810160405280929190818152602001828054610bff9061152a565b8015610c4a5780601f10610c2157610100808354040283529160200191610c4a565b820191905f5260205f20905b815481529060010190602001808311610c2d57829003601f168201915b505050505081526020016004820154815260200160058201548152602001600682015f9054906101000a900460ff161515151581526020016006820160019054906101000a900460ff16151515158152505090508060c001518015610cb157508060e00151155b8015610cc157508060a001514211155b15610cd0576001915050610cd5565b5f9150505b92915050565b5f604051905090565b5f5ffd5b5f5ffd5b5f819050919050565b610cfe81610cec565b8114610d08575f5ffd5b50565b5f81359050610d1981610cf5565b92915050565b5f60208284031215610d3457610d33610ce4565b5b5f610d4184828501610d0b565b91505092915050565b5f73ffffffffffffffffffffffffffffffffffffffff82169050919050565b5f819050919050565b5f610d8c610d87610d8284610d4a565b610d69565b610d4a565b9050919050565b5f610d9d82610d72565b9050919050565b5f610dae82610d93565b9050919050565b610dbe81610da4565b82525050565b5f602082019050610dd75f830184610db5565b92915050565b5f610de782610d4a565b9050919050565b610df781610ddd565b8114610e01575f5ffd5b50565b5f81359050610e1281610dee565b92915050565b5f5ffd5b5f5ffd5b5f601f19601f8301169050919050565b7f4e487b71000000000000000000000000000000000000000000000000000000005f52604160045260245ffd5b610e6682610e20565b810181811067ffffffffffffffff82111715610e8557610e84610e30565b5b80604052505050565b5f610e97610cdb565b9050610ea38282610e5d565b919050565b5f67ffffffffffffffff821115610ec257610ec1610e30565b5b610ecb82610e20565b9050602081019050919050565b828183375f83830152505050565b5f610ef8610ef384610ea8565b610e8e565b905082815260208101848484011115610f1457610f13610e1c565b5b610f1f848285610ed8565b509392505050565b5f82601f830112610f3b57610f3a610e18565b5b8135610f4b848260208601610ee6565b91505092915050565b5f5f5f5f60808587031215610f6c57610f6b610ce4565b5b5f610f7987828801610e04565b945050602085013567ffffffffffffffff811115610f9a57610f99610ce8565b5b610fa687828801610f27565b935050604085013567ffffffffffffffff811115610fc757610fc6610ce8565b5b610fd387828801610f27565b9250506060610fe487828801610d0b565b91505092959194509250565b5f610ffa82610d93565b9050919050565b61100a81610ff0565b82525050565b5f6020820190506110235f830184611001565b92915050565b5f81519050919050565b5f82825260208201905092915050565b5f819050602082019050919050565b61105b81610ddd565b82525050565b5f81519050919050565b5f82825260208201905092915050565b8281835e5f83830152505050565b5f61109382611061565b61109d818561106b565b93506110ad81856020860161107b565b6110b681610e20565b840191505092915050565b6110ca81610cec565b82525050565b5f8115159050919050565b6110e4816110d0565b82525050565b5f61010083015f8301516111005f860182611052565b5060208301516111136020860182611052565b506040830151848203604086015261112b8282611089565b915050606083015184820360608601526111458282611089565b915050608083015161115a60808601826110c1565b5060a083015161116d60a08601826110c1565b5060c083015161118060c08601826110db565b5060e083015161119360e08601826110db565b508091505092915050565b5f6111a983836110ea565b905092915050565b5f602082019050919050565b5f6111c782611029565b6111d18185611033565b9350836020820285016111e385611043565b805f5b8581101561121e57848403895281516111ff858261119e565b945061120a836111b1565b925060208a019950506001810190506111e6565b50829750879550505050505092915050565b5f6020820190508181035f83015261124881846111bd565b905092915050565b5f5f6040838503121561126657611265610ce4565b5b5f61127385828601610e04565b925050602061128485828601610d0b565b9150509250929050565b611297816110d0565b82525050565b5f6020820190506112b05f83018461128e565b92915050565b7f4e487b71000000000000000000000000000000000000000000000000000000005f52603260045260245ffd5b6112ec81610ddd565b82525050565b6112fb81610cec565b82525050565b5f6040820190506113145f8301856112e3565b61132160208301846112f2565b9392505050565b5f82825260208201905092915050565b7f416c7265616479207265766f6b656400000000000000000000000000000000005f82015250565b5f61136c600f83611328565b915061137782611338565b602082019050919050565b5f6020820190508181035f83015261139981611360565b9050919050565b5f6040820190506113b35f8301856112e3565b6113c060208301846112e3565b9392505050565b5f6020820190506113da5f8301846112e3565b92915050565b6113e9816110d0565b81146113f3575f5ffd5b50565b5f81519050611404816113e0565b92915050565b5f6020828403121561141f5761141e610ce4565b5b5f61142c848285016113f6565b91505092915050565b7f466964756369617279206e6f7420617070726f766564000000000000000000005f82015250565b5f611469601683611328565b915061147482611435565b602082019050919050565b5f6020820190508181035f8301526114968161145d565b9050919050565b7f4e487b71000000000000000000000000000000000000000000000000000000005f52601160045260245ffd5b5f6114d482610cec565b91506114df83610cec565b92508282019050808211156114f7576114f661149d565b5b92915050565b7f4e487b71000000000000000000000000000000000000000000000000000000005f52602260045260245ffd5b5f600282049050600182168061154157607f821691505b602082108103611554576115536114fd565b5b50919050565b5f819050815f5260205f209050919050565b5f6020601f8301049050919050565b5f82821b905092915050565b5f600883026115b67fffffffffffffffffffffffffffffffffffffffffffffffffffffffffffffffff8261157b565b6115c0868361157b565b95508019841693508086168417925050509392505050565b5f6115f26115ed6115e884610cec565b610d69565b610cec565b9050919050565b5f819050919050565b61160b836115d8565b61161f611617826115f9565b848454611587565b825550505050565b5f5f905090565b611636611627565b611641818484611602565b505050565b5b81811015611664576116595f8261162e565b600181019050611647565b5050565b601f8211156116a95761167a8161155a565b6116838461156c565b81016020851015611692578190505b6116a661169e8561156c565b830182611646565b50505b505050565b5f82821c905092915050565b5f6116c95f19846008026116ae565b1980831691505092915050565b5f6116e183836116ba565b9150826002028217905092915050565b6116fa82611061565b67ffffffffffffffff81111561171357611712610e30565b5b61171d825461152a565b611728828285611668565b5f60209050601f831160018114611759575f8415611747578287015190505b61175185826116d6565b8655506117b8565b601f1984166117678661155a565b5f5b8281101561178e57848901518255600182019150602085019450602081019050611769565b868310156117ab57848901516117a7601f8916826116ba565b8355505b6001600288020188555050505b505050505050565b5f6117ca82611061565b6117d48185611328565b93506117e481856020860161107b565b6117ed81610e20565b840191505092915050565b5f60808201905061180b5f8301876112e3565b61181860208301866112e3565b818103604083015261182a81856117c0565b905061183960608301846112f2565b9594505050505056fea2646970667358221220288bc73f098fb4e434b46512560e51b0b149b4c6549f2830938356c6207df99a64736f6c634300081c0033","opcodes":"PUSH1 0x80 PUSH1 0x40 MSTORE CALLVALUE DUP1 ISZERO PUSH2 0xF JUMPI PUSH0 PUSH0 REVERT JUMPDEST POP PUSH1 0x40 MLOAD PUSH2 0x19D9 CODESIZE SUB DUP1 PUSH2 0x19D9 DUP4 CODECOPY DUP2 DUP2 ADD PUSH1 0x40 MSTORE DUP2 ADD SWAP1 PUSH2 0x31 SWAP2 SWAP1 PUSH2 0x116 JUMP JUMPDEST DUP2 PUSH1 0x1 PUSH0 PUSH2 0x100 EXP DUP2 SLOAD DUP2 PUSH20 0xFFFFFFFFFFFFFFFFFFFFFFFFFFFFFFFFFFFFFFFF MUL NOT AND SWAP1 DUP4 PUSH20 0xFFFFFFFFFFFFFFFFFFFFFFFFFFFFFFFFFFFFFFFF AND MUL OR SWAP1 SSTORE POP DUP1 PUSH1 0x2 PUSH0 PUSH2 0x100 EXP DUP2 SLOAD DUP2 PUSH20 0xFFFFFFFFFFFFFFFFFFFFFFFFFFFFFFFFFFFFFFFF MUL NOT AND SWAP1 DUP4 PUSH20 0xFFFFFFFFFFFFFFFFFFFFFFFFFFFFFFFFFFFFFFFF AND MUL OR SWAP1 SSTORE POP POP POP PUSH2 0x154 JUMP JUMPDEST PUSH0 PUSH0 REVERT JUMPDEST PUSH0 PUSH20 0xFFFFFFFFFFFFFFFFFFFFFFFFFFFFFFFFFFFFFFFF DUP3 AND SWAP1 POP SWAP2 SWAP1 POP JUMP JUMPDEST PUSH0 PUSH2 0xE5 DUP3 PUSH2 0xBC JUMP JUMPDEST SWAP1 POP SWAP2 SWAP1 POP JUMP JUMPDEST PUSH2 0xF5 DUP2 PUSH2 0xDB JUMP JUMPDEST DUP2 EQ PUSH2 0xFF JUMPI PUSH0 PUSH0 REVERT JUMPDEST POP JUMP JUMPDEST PUSH0 DUP2 MLOAD SWAP1 POP PUSH2 0x110 DUP2 PUSH2 0xEC JUMP JUMPDEST SWAP3 SWAP2 POP POP JUMP JUMPDEST PUSH0 PUSH0 PUSH1 0x40 DUP4 DUP6 SUB SLT ISZERO PUSH2 0x12C JUMPI PUSH2 0x12B PUSH2 0xB8 JUMP JUMPDEST JUMPDEST PUSH0 PUSH2 0x139 DUP6 DUP3 DUP7 ADD PUSH2 0x102 JUMP JUMPDEST SWAP3 POP POP PUSH1 0x20 PUSH2 0x14A DUP6 DUP3 DUP7 ADD PUSH2 0x102 JUMP JUMPDEST SWAP2 POP POP SWAP3 POP SWAP3 SWAP1 POP JUMP JUMPDEST PUSH2 0x1878 DUP1 PUSH2 0x161 PUSH0 CODECOPY PUSH0 RETURN INVALID PUSH1 0x80 PUSH1 0x40 MSTORE CALLVALUE DUP1 ISZERO PUSH2 0xF JUMPI PUSH0 PUSH0 REVERT JUMPDEST POP PUSH1 0x4 CALLDATASIZE LT PUSH2 0x7B JUMPI PUSH0 CALLDATALOAD PUSH1 0xE0 SHR DUP1 PUSH4 0x4448E28F GT PUSH2 0x59 JUMPI DUP1 PUSH4 0x4448E28F EQ PUSH2 0xD5 JUMPI DUP1 PUSH4 0x7B103999 EQ PUSH2 0xF1 JUMPI DUP1 PUSH4 0x7CC36DEE EQ PUSH2 0x10F JUMPI DUP1 PUSH4 0xD46038EC EQ PUSH2 0x12D JUMPI PUSH2 0x7B JUMP JUMPDEST DUP1 PUSH4 0x9E422E7 EQ PUSH2 0x7F JUMPI DUP1 PUSH4 0x16A0042C EQ PUSH2 0x9B JUMPI DUP1 PUSH4 0x1DDC0EF0 EQ PUSH2 0xB7 JUMPI JUMPDEST PUSH0 PUSH0 REVERT JUMPDEST PUSH2 0x99 PUSH1 0x4 DUP1 CALLDATASIZE SUB DUP2 ADD SWAP1 PUSH2 0x94 SWAP2 SWAP1 PUSH2 0xD1F JUMP JUMPDEST PUSH2 0x15D JUMP JUMPDEST STOP JUMPDEST PUSH2 0xB5 PUSH1 0x4 DUP1 CALLDATASIZE SUB DUP2 ADD SWAP1 PUSH2 0xB0 SWAP2 SWAP1 PUSH2 0xD1F JUMP JUMPDEST PUSH2 0x264 JUMP JUMPDEST STOP JUMPDEST PUSH2 0xBF PUSH2 0x3DC JUMP JUMPDEST PUSH1 0x40 MLOAD PUSH2 0xCC SWAP2 SWAP1 PUSH2 0xDC4 JUMP JUMPDEST PUSH1 0x40 MLOAD DUP1 SWAP2 SUB SWAP1 RETURN JUMPDEST PUSH2 0xEF PUSH1 0x4 DUP1 CALLDATASIZE SUB DUP2 ADD SWAP1 PUSH2 0xEA SWAP2 SWAP1 PUSH2 0xF54 JUMP JUMPDEST PUSH2 0x401 JUMP JUMPDEST STOP JUMPDEST PUSH2 0xF9 PUSH2 0x754 JUMP JUMPDEST PUSH1 0x40 MLOAD PUSH2 0x106 SWAP2 SWAP1 PUSH2 0x1010 JUMP JUMPDEST PUSH1 0x40 MLOAD DUP1 SWAP2 SUB SWAP1 RETURN JUMPDEST PUSH2 0x117 PUSH2 0x779 JUMP JUMPDEST PUSH1 0x40 MLOAD PUSH2 0x124 SWAP2 SWAP1 PUSH2 0x1230 JUMP JUMPDEST PUSH1 0x40 MLOAD DUP1 SWAP2 SUB SWAP1 RETURN JUMPDEST PUSH2 0x147 PUSH1 0x4 DUP1 CALLDATASIZE SUB DUP2 ADD SWAP1 PUSH2 0x142 SWAP2 SWAP1 PUSH2 0x1250 JUMP JUMPDEST PUSH2 0xA22 JUMP JUMPDEST PUSH1 0x40 MLOAD PUSH2 0x154 SWAP2 SWAP1 PUSH2 0x129D JUMP JUMPDEST PUSH1 0x40 MLOAD DUP1 SWAP2 SUB SWAP1 RETURN JUMPDEST PUSH0 PUSH0 PUSH0 CALLER PUSH20 0xFFFFFFFFFFFFFFFFFFFFFFFFFFFFFFFFFFFFFFFF AND PUSH20 0xFFFFFFFFFFFFFFFFFFFFFFFFFFFFFFFFFFFFFFFF AND DUP2 MSTORE PUSH1 0x20 ADD SWAP1 DUP2 MSTORE PUSH1 0x20 ADD PUSH0 KECCAK256 DUP3 DUP2 SLOAD DUP2 LT PUSH2 0x1AC JUMPI PUSH2 0x1AB PUSH2 0x12B6 JUMP JUMPDEST JUMPDEST SWAP1 PUSH0 MSTORE PUSH1 0x20 PUSH0 KECCAK256 SWAP1 PUSH1 0x7 MUL ADD SWAP1 POP PUSH1 0x1 DUP2 PUSH1 0x6 ADD PUSH1 0x1 PUSH2 0x100 EXP DUP2 SLOAD DUP2 PUSH1 0xFF MUL NOT AND SWAP1 DUP4 ISZERO ISZERO MUL OR SWAP1 SSTORE POP PUSH1 0x2 PUSH0 SWAP1 SLOAD SWAP1 PUSH2 0x100 EXP SWAP1 DIV PUSH20 0xFFFFFFFFFFFFFFFFFFFFFFFFFFFFFFFFFFFFFFFF AND PUSH20 0xFFFFFFFFFFFFFFFFFFFFFFFFFFFFFFFFFFFFFFFF AND PUSH4 0x72A4DCBE CALLER TIMESTAMP PUSH1 0x40 MLOAD DUP4 PUSH4 0xFFFFFFFF AND PUSH1 0xE0 SHL DUP2 MSTORE PUSH1 0x4 ADD PUSH2 0x233 SWAP3 SWAP2 SWAP1 PUSH2 0x1301 JUMP JUMPDEST PUSH0 PUSH1 0x40 MLOAD DUP1 DUP4 SUB DUP2 PUSH0 DUP8 DUP1 EXTCODESIZE ISZERO DUP1 ISZERO PUSH2 0x24A JUMPI PUSH0 PUSH0 REVERT JUMPDEST POP GAS CALL ISZERO DUP1 ISZERO PUSH2 0x25C JUMPI RETURNDATASIZE PUSH0 PUSH0 RETURNDATACOPY RETURNDATASIZE PUSH0 REVERT JUMPDEST POP POP POP POP POP POP JUMP JUMPDEST PUSH0 PUSH0 PUSH0 CALLER PUSH20 0xFFFFFFFFFFFFFFFFFFFFFFFFFFFFFFFFFFFFFFFF AND PUSH20 0xFFFFFFFFFFFFFFFFFFFFFFFFFFFFFFFFFFFFFFFF AND DUP2 MSTORE PUSH1 0x20 ADD SWAP1 DUP2 MSTORE PUSH1 0x20 ADD PUSH0 KECCAK256 DUP3 DUP2 SLOAD DUP2 LT PUSH2 0x2B3 JUMPI PUSH2 0x2B2 PUSH2 0x12B6 JUMP JUMPDEST JUMPDEST SWAP1 PUSH0 MSTORE PUSH1 0x20 PUSH0 KECCAK256 SWAP1 PUSH1 0x7 MUL ADD SWAP1 POP DUP1 PUSH1 0x6 ADD PUSH0 SWAP1 SLOAD SWAP1 PUSH2 0x100 EXP SWAP1 DIV PUSH1 0xFF AND PUSH2 0x311 JUMPI PUSH1 0x40 MLOAD PUSH32 0x8C379A000000000000000000000000000000000000000000000000000000000 DUP2 MSTORE PUSH1 0x4 ADD PUSH2 0x308 SWAP1 PUSH2 0x1382 JUMP JUMPDEST PUSH1 0x40 MLOAD DUP1 SWAP2 SUB SWAP1 REVERT JUMPDEST PUSH0 DUP2 PUSH1 0x6 ADD PUSH0 PUSH2 0x100 EXP DUP2 SLOAD DUP2 PUSH1 0xFF MUL NOT AND SWAP1 DUP4 ISZERO ISZERO MUL OR SWAP1 SSTORE POP PUSH1 0x2 PUSH0 SWAP1 SLOAD SWAP1 PUSH2 0x100 EXP SWAP1 DIV PUSH20 0xFFFFFFFFFFFFFFFFFFFFFFFFFFFFFFFFFFFFFFFF AND PUSH20 0xFFFFFFFFFFFFFFFFFFFFFFFFFFFFFFFFFFFFFFFF AND PUSH4 0xDF0A1822 CALLER DUP4 PUSH1 0x1 ADD PUSH0 SWAP1 SLOAD SWAP1 PUSH2 0x100 EXP SWAP1 DIV PUSH20 0xFFFFFFFFFFFFFFFFFFFFFFFFFFFFFFFFFFFFFFFF AND PUSH1 0x40 MLOAD DUP4 PUSH4 0xFFFFFFFF AND PUSH1 0xE0 SHL DUP2 MSTORE PUSH1 0x4 ADD PUSH2 0x3AB SWAP3 SWAP2 SWAP1 PUSH2 0x13A0 JUMP JUMPDEST PUSH0 PUSH1 0x40 MLOAD DUP1 DUP4 SUB DUP2 PUSH0 DUP8 DUP1 EXTCODESIZE ISZERO DUP1 ISZERO PUSH2 0x3C2 JUMPI PUSH0 PUSH0 REVERT JUMPDEST POP GAS CALL ISZERO DUP1 ISZERO PUSH2 0x3D4 JUMPI RETURNDATASIZE PUSH0 PUSH0 RETURNDATACOPY RETURNDATASIZE PUSH0 REVERT JUMPDEST POP POP POP POP POP POP JUMP JUMPDEST PUSH1 0x2 PUSH0 SWAP1 SLOAD SWAP1 PUSH2 0x100 EXP SWAP1 DIV PUSH20 0xFFFFFFFFFFFFFFFFFFFFFFFFFFFFFFFFFFFFFFFF AND DUP2 JUMP JUMPDEST PUSH1 0x1 PUSH0 SWAP1 SLOAD SWAP1 PUSH2 0x100 EXP SWAP1 DIV PUSH20 0xFFFFFFFFFFFFFFFFFFFFFFFFFFFFFFFFFFFFFFFF AND PUSH20 0xFFFFFFFFFFFFFFFFFFFFFFFFFFFFFFFFFFFFFFFF AND PUSH4 0x673448DD DUP6 PUSH1 0x40 MLOAD DUP3 PUSH4 0xFFFFFFFF AND PUSH1 0xE0 SHL DUP2 MSTORE PUSH1 0x4 ADD PUSH2 0x45B SWAP2 SWAP1 PUSH2 0x13C7 JUMP JUMPDEST PUSH1 0x20 PUSH1 0x40 MLOAD DUP1 DUP4 SUB DUP2 DUP7 GAS STATICCALL ISZERO DUP1 ISZERO PUSH2 0x476 JUMPI RETURNDATASIZE PUSH0 PUSH0 RETURNDATACOPY RETURNDATASIZE PUSH0 REVERT JUMPDEST POP POP POP POP PUSH1 0x40 MLOAD RETURNDATASIZE PUSH1 0x1F NOT PUSH1 0x1F DUP3 ADD AND DUP3 ADD DUP1 PUSH1 0x40 MSTORE POP DUP2 ADD SWAP1 PUSH2 0x49A SWAP2 SWAP1 PUSH2 0x140A JUMP JUMPDEST PUSH2 0x4D9 JUMPI PUSH1 0x40 MLOAD PUSH32 0x8C379A000000000000000000000000000000000000000000000000000000000 DUP2 MSTORE PUSH1 0x4 ADD PUSH2 0x4D0 SWAP1 PUSH2 0x147F JUMP JUMPDEST PUSH1 0x40 MLOAD DUP1 SWAP2 SUB SWAP1 REVERT JUMPDEST PUSH0 DUP2 TIMESTAMP PUSH2 0x4E6 SWAP2 SWAP1 PUSH2 0x14CA JUMP JUMPDEST SWAP1 POP PUSH0 PUSH0 CALLER PUSH20 0xFFFFFFFFFFFFFFFFFFFFFFFFFFFFFFFFFFFFFFFF AND PUSH20 0xFFFFFFFFFFFFFFFFFFFFFFFFFFFFFFFFFFFFFFFF AND DUP2 MSTORE PUSH1 0x20 ADD SWAP1 DUP2 MSTORE PUSH1 0x20 ADD PUSH0 KECCAK256 PUSH1 0x40 MLOAD DUP1 PUSH2 0x100 ADD PUSH1 0x40 MSTORE DUP1 CALLER PUSH20 0xFFFFFFFFFFFFFFFFFFFFFFFFFFFFFFFFFFFFFFFF AND DUP2 MSTORE PUSH1 0x20 ADD DUP8 PUSH20 0xFFFFFFFFFFFFFFFFFFFFFFFFFFFFFFFFFFFFFFFF AND DUP2 MSTORE PUSH1 0x20 ADD DUP7 DUP2 MSTORE PUSH1 0x20 ADD DUP6 DUP2 MSTORE PUSH1 0x20 ADD TIMESTAMP DUP2 MSTORE PUSH1 0x20 ADD DUP4 DUP2 MSTORE PUSH1 0x20 ADD PUSH1 0x1 ISZERO ISZERO DUP2 MSTORE PUSH1 0x20 ADD PUSH0 ISZERO ISZERO DUP2 MSTORE POP SWAP1 DUP1 PUSH1 0x1 DUP2 SLOAD ADD DUP1 DUP3 SSTORE DUP1 SWAP2 POP POP PUSH1 0x1 SWAP1 SUB SWAP1 PUSH0 MSTORE PUSH1 0x20 PUSH0 KECCAK256 SWAP1 PUSH1 0x7 MUL ADD PUSH0 SWAP1 SWAP2 SWAP1 SWAP2 SWAP1 SWAP2 POP PUSH0 DUP3 ADD MLOAD DUP2 PUSH0 ADD PUSH0 PUSH2 0x100 EXP DUP2 SLOAD DUP2 PUSH20 0xFFFFFFFFFFFFFFFFFFFFFFFFFFFFFFFFFFFFFFFF MUL NOT AND SWAP1 DUP4 PUSH20 0xFFFFFFFFFFFFFFFFFFFFFFFFFFFFFFFFFFFFFFFF AND MUL OR SWAP1 SSTORE POP PUSH1 0x20 DUP3 ADD MLOAD DUP2 PUSH1 0x1 ADD PUSH0 PUSH2 0x100 EXP DUP2 SLOAD DUP2 PUSH20 0xFFFFFFFFFFFFFFFFFFFFFFFFFFFFFFFFFFFFFFFF MUL NOT AND SWAP1 DUP4 PUSH20 0xFFFFFFFFFFFFFFFFFFFFFFFFFFFFFFFFFFFFFFFF AND MUL OR SWAP1 SSTORE POP PUSH1 0x40 DUP3 ADD MLOAD DUP2 PUSH1 0x2 ADD SWAP1 DUP2 PUSH2 0x654 SWAP2 SWAP1 PUSH2 0x16F1 JUMP JUMPDEST POP PUSH1 0x60 DUP3 ADD MLOAD DUP2 PUSH1 0x3 ADD SWAP1 DUP2 PUSH2 0x66A SWAP2 SWAP1 PUSH2 0x16F1 JUMP JUMPDEST POP PUSH1 0x80 DUP3 ADD MLOAD DUP2 PUSH1 0x4 ADD SSTORE PUSH1 0xA0 DUP3 ADD MLOAD DUP2 PUSH1 0x5 ADD SSTORE PUSH1 0xC0 DUP3 ADD MLOAD DUP2 PUSH1 0x6 ADD PUSH0 PUSH2 0x100 EXP DUP2 SLOAD DUP2 PUSH1 0xFF MUL NOT AND SWAP1 DUP4 ISZERO ISZERO MUL OR SWAP1 SSTORE POP PUSH1 0xE0 DUP3 ADD MLOAD DUP2 PUSH1 0x6 ADD PUSH1 0x1 PUSH2 0x100 EXP DUP2 SLOAD DUP2 PUSH1 0xFF MUL NOT AND SWAP1 DUP4 ISZERO ISZERO MUL OR SWAP1 SSTORE POP POP POP PUSH1 0x2 PUSH0 SWAP1 SLOAD SWAP1 PUSH2 0x100 EXP SWAP1 DIV PUSH20 0xFFFFFFFFFFFFFFFFFFFFFFFFFFFFFFFFFFFFFFFF AND PUSH20 0xFFFFFFFFFFFFFFFFFFFFFFFFFFFFFFFFFFFFFFFF AND PUSH4 0xA3B233E5 CALLER DUP8 DUP8 DUP6 PUSH1 0x40 MLOAD DUP6 PUSH4 0xFFFFFFFF AND PUSH1 0xE0 SHL DUP2 MSTORE PUSH1 0x4 ADD PUSH2 0x720 SWAP5 SWAP4 SWAP3 SWAP2 SWAP1 PUSH2 0x17F8 JUMP JUMPDEST PUSH0 PUSH1 0x40 MLOAD DUP1 DUP4 SUB DUP2 PUSH0 DUP8 DUP1 EXTCODESIZE ISZERO DUP1 ISZERO PUSH2 0x737 JUMPI PUSH0 PUSH0 REVERT JUMPDEST POP GAS CALL ISZERO DUP1 ISZERO PUSH2 0x749 JUMPI RETURNDATASIZE PUSH0 PUSH0 RETURNDATACOPY RETURNDATASIZE PUSH0 REVERT JUMPDEST POP POP POP POP POP POP POP POP POP JUMP JUMPDEST PUSH1 0x1 PUSH0 SWAP1 SLOAD SWAP1 PUSH2 0x100 EXP SWAP1 DIV PUSH20 0xFFFFFFFFFFFFFFFFFFFFFFFFFFFFFFFFFFFFFFFF AND DUP2 JUMP JUMPDEST PUSH1 0x60 PUSH0 PUSH0 CALLER PUSH20 0xFFFFFFFFFFFFFFFFFFFFFFFFFFFFFFFFFFFFFFFF AND PUSH20 0xFFFFFFFFFFFFFFFFFFFFFFFFFFFFFFFFFFFFFFFF AND DUP2 MSTORE PUSH1 0x20 ADD SWAP1 DUP2 MSTORE PUSH1 0x20 ADD PUSH0 KECCAK256 DUP1 SLOAD DUP1 PUSH1 0x20 MUL PUSH1 0x20 ADD PUSH1 0x40 MLOAD SWAP1 DUP2 ADD PUSH1 0x40 MSTORE DUP1 SWAP3 SWAP2 SWAP1 DUP2 DUP2 MSTORE PUSH1 0x20 ADD PUSH0 SWAP1 JUMPDEST DUP3 DUP3 LT ISZERO PUSH2 0xA19 JUMPI DUP4 DUP3 SWAP1 PUSH0 MSTORE PUSH1 0x20 PUSH0 KECCAK256 SWAP1 PUSH1 0x7 MUL ADD PUSH1 0x40 MLOAD DUP1 PUSH2 0x100 ADD PUSH1 0x40 MSTORE SWAP1 DUP2 PUSH0 DUP3 ADD PUSH0 SWAP1 SLOAD SWAP1 PUSH2 0x100 EXP SWAP1 DIV PUSH20 0xFFFFFFFFFFFFFFFFFFFFFFFFFFFFFFFFFFFFFFFF AND PUSH20 0xFFFFFFFFFFFFFFFFFFFFFFFFFFFFFFFFFFFFFFFF AND PUSH20 0xFFFFFFFFFFFFFFFFFFFFFFFFFFFFFFFFFFFFFFFF AND DUP2 MSTORE PUSH1 0x20 ADD PUSH1 0x1 DUP3 ADD PUSH0 SWAP1 SLOAD SWAP1 PUSH2 0x100 EXP SWAP1 DIV PUSH20 0xFFFFFFFFFFFFFFFFFFFFFFFFFFFFFFFFFFFFFFFF AND PUSH20 0xFFFFFFFFFFFFFFFFFFFFFFFFFFFFFFFFFFFFFFFF AND PUSH20 0xFFFFFFFFFFFFFFFFFFFFFFFFFFFFFFFFFFFFFFFF AND DUP2 MSTORE PUSH1 0x20 ADD PUSH1 0x2 DUP3 ADD DUP1 SLOAD PUSH2 0x8B1 SWAP1 PUSH2 0x152A JUMP JUMPDEST DUP1 PUSH1 0x1F ADD PUSH1 0x20 DUP1 SWAP2 DIV MUL PUSH1 0x20 ADD PUSH1 0x40 MLOAD SWAP1 DUP2 ADD PUSH1 0x40 MSTORE DUP1 SWAP3 SWAP2 SWAP1 DUP2 DUP2 MSTORE PUSH1 0x20 ADD DUP3 DUP1 SLOAD PUSH2 0x8DD SWAP1 PUSH2 0x152A JUMP JUMPDEST DUP1 ISZERO PUSH2 0x928 JUMPI DUP1 PUSH1 0x1F LT PUSH2 0x8FF JUMPI PUSH2 0x100 DUP1 DUP4 SLOAD DIV MUL DUP4 MSTORE SWAP2 PUSH1 0x20 ADD SWAP2 PUSH2 0x928 JUMP JUMPDEST DUP3 ADD SWAP2 SWAP1 PUSH0 MSTORE PUSH1 0x20 PUSH0 KECCAK256 SWAP1 JUMPDEST DUP2 SLOAD DUP2 MSTORE SWAP1 PUSH1 0x1 ADD SWAP1 PUSH1 0x20 ADD DUP1 DUP4 GT PUSH2 0x90B JUMPI DUP3 SWAP1 SUB PUSH1 0x1F AND DUP3 ADD SWAP2 JUMPDEST POP POP POP POP POP DUP2 MSTORE PUSH1 0x20 ADD PUSH1 0x3 DUP3 ADD DUP1 SLOAD PUSH2 0x941 SWAP1 PUSH2 0x152A JUMP JUMPDEST DUP1 PUSH1 0x1F ADD PUSH1 0x20 DUP1 SWAP2 DIV MUL PUSH1 0x20 ADD PUSH1 0x40 MLOAD SWAP1 DUP2 ADD PUSH1 0x40 MSTORE DUP1 SWAP3 SWAP2 SWAP1 DUP2 DUP2 MSTORE PUSH1 0x20 ADD DUP3 DUP1 SLOAD PUSH2 0x96D SWAP1 PUSH2 0x152A JUMP JUMPDEST DUP1 ISZERO PUSH2 0x9B8 JUMPI DUP1 PUSH1 0x1F LT PUSH2 0x98F JUMPI PUSH2 0x100 DUP1 DUP4 SLOAD DIV MUL DUP4 MSTORE SWAP2 PUSH1 0x20 ADD SWAP2 PUSH2 0x9B8 JUMP JUMPDEST DUP3 ADD SWAP2 SWAP1 PUSH0 MSTORE PUSH1 0x20 PUSH0 KECCAK256 SWAP1 JUMPDEST DUP2 SLOAD DUP2 MSTORE SWAP1 PUSH1 0x1 ADD SWAP1 PUSH1 0x20 ADD DUP1 DUP4 GT PUSH2 0x99B JUMPI DUP3 SWAP1 SUB PUSH1 0x1F AND DUP3 ADD SWAP2 JUMPDEST POP POP POP POP POP DUP2 MSTORE PUSH1 0x20 ADD PUSH1 0x4 DUP3 ADD SLOAD DUP2 MSTORE PUSH1 0x20 ADD PUSH1 0x5 DUP3 ADD SLOAD DUP2 MSTORE PUSH1 0x20 ADD PUSH1 0x6 DUP3 ADD PUSH0 SWAP1 SLOAD SWAP1 PUSH2 0x100 EXP SWAP1 DIV PUSH1 0xFF AND ISZERO ISZERO ISZERO ISZERO DUP2 MSTORE PUSH1 0x20 ADD PUSH1 0x6 DUP3 ADD PUSH1 0x1 SWAP1 SLOAD SWAP1 PUSH2 0x100 EXP SWAP1 DIV PUSH1 0xFF AND ISZERO ISZERO ISZERO ISZERO DUP2 MSTORE POP POP DUP2 MSTORE PUSH1 0x20 ADD SWAP1 PUSH1 0x1 ADD SWAP1 PUSH2 0x7D6 JUMP JUMPDEST POP POP POP POP SWAP1 POP SWAP1 JUMP JUMPDEST PUSH0 PUSH0 PUSH0 PUSH0 DUP6 PUSH20 0xFFFFFFFFFFFFFFFFFFFFFFFFFFFFFFFFFFFFFFFF AND PUSH20 0xFFFFFFFFFFFFFFFFFFFFFFFFFFFFFFFFFFFFFFFF AND DUP2 MSTORE PUSH1 0x20 ADD SWAP1 DUP2 MSTORE PUSH1 0x20 ADD PUSH0 KECCAK256 DUP4 DUP2 SLOAD DUP2 LT PUSH2 0xA72 JUMPI PUSH2 0xA71 PUSH2 0x12B6 JUMP JUMPDEST JUMPDEST SWAP1 PUSH0 MSTORE PUSH1 0x20 PUSH0 KECCAK256 SWAP1 PUSH1 0x7 MUL ADD PUSH1 0x40 MLOAD DUP1 PUSH2 0x100 ADD PUSH1 0x40 MSTORE SWAP1 DUP2 PUSH0 DUP3 ADD PUSH0 SWAP1 SLOAD SWAP1 PUSH2 0x100 EXP SWAP1 DIV PUSH20 0xFFFFFFFFFFFFFFFFFFFFFFFFFFFFFFFFFFFFFFFF AND PUSH20 0xFFFFFFFFFFFFFFFFFFFFFFFFFFFFFFFFFFFFFFFF AND PUSH20 0xFFFFFFFFFFFFFFFFFFFFFFFFFFFFFFFFFFFFFFFF AND DUP2 MSTORE PUSH1 0x20 ADD PUSH1 0x1 DUP3 ADD PUSH0 SWAP1 SLOAD SWAP1 PUSH2 0x100 EXP SWAP1 DIV PUSH20 0xFFFFFFFFFFFFFFFFFFFFFFFFFFFFFFFFFFFFFFFF AND PUSH20 0xFFFFFFFFFFFFFFFFFFFFFFFFFFFFFFFFFFFFFFFF AND PUSH20 0xFFFFFFFFFFFFFFFFFFFFFFFFFFFFFFFFFFFFFFFF AND DUP2 MSTORE PUSH1 0x20 ADD PUSH1 0x2 DUP3 ADD DUP1 SLOAD PUSH2 0xB43 SWAP1 PUSH2 0x152A JUMP JUMPDEST DUP1 PUSH1 0x1F ADD PUSH1 0x20 DUP1 SWAP2 DIV MUL PUSH1 0x20 ADD PUSH1 0x40 MLOAD SWAP1 DUP2 ADD PUSH1 0x40 MSTORE DUP1 SWAP3 SWAP2 SWAP1 DUP2 DUP2 MSTORE PUSH1 0x20 ADD DUP3 DUP1 SLOAD PUSH2 0xB6F SWAP1 PUSH2 0x152A JUMP JUMPDEST DUP1 ISZERO PUSH2 0xBBA JUMPI DUP1 PUSH1 0x1F LT PUSH2 0xB91 JUMPI PUSH2 0x100 DUP1 DUP4 SLOAD DIV MUL DUP4 MSTORE SWAP2 PUSH1 0x20 ADD SWAP2 PUSH2 0xBBA JUMP JUMPDEST DUP3 ADD SWAP2 SWAP1 PUSH0 MSTORE PUSH1 0x20 PUSH0 KECCAK256 SWAP1 JUMPDEST DUP2 SLOAD DUP2 MSTORE SWAP1 PUSH1 0x1 ADD SWAP1 PUSH1 0x20 ADD DUP1 DUP4 GT PUSH2 0xB9D JUMPI DUP3 SWAP1 SUB PUSH1 0x1F AND DUP3 ADD SWAP2 JUMPDEST POP POP POP POP POP DUP2 MSTORE PUSH1 0x20 ADD PUSH1 0x3 DUP3 ADD DUP1 SLOAD PUSH2 0xBD3 SWAP1 PUSH2 0x152A JUMP JUMPDEST DUP1 PUSH1 0x1F ADD PUSH1 0x20 DUP1 SWAP2 DIV MUL PUSH1 0x20 ADD PUSH1 0x40 MLOAD SWAP1 DUP2 ADD PUSH1 0x40 MSTORE DUP1 SWAP3 SWAP2 SWAP1 DUP2 DUP2 MSTORE PUSH1 0x20 ADD DUP3 DUP1 SLOAD PUSH2 0xBFF SWAP1 PUSH2 0x152A JUMP JUMPDEST DUP1 ISZERO PUSH2 0xC4A JUMPI DUP1 PUSH1 0x1F LT PUSH2 0xC21 JUMPI PUSH2 0x100 DUP1 DUP4 SLOAD DIV MUL DUP4 MSTORE SWAP2 PUSH1 0x20 ADD SWAP2 PUSH2 0xC4A JUMP JUMPDEST DUP3 ADD SWAP2 SWAP1 PUSH0 MSTORE PUSH1 0x20 PUSH0 KECCAK256 SWAP1 JUMPDEST DUP2 SLOAD DUP2 MSTORE SWAP1 PUSH1 0x1 ADD SWAP1 PUSH1 0x20 ADD DUP1 DUP4 GT PUSH2 0xC2D JUMPI DUP3 SWAP1 SUB PUSH1 0x1F AND DUP3 ADD SWAP2 JUMPDEST POP POP POP POP POP DUP2 MSTORE PUSH1 0x20 ADD PUSH1 0x4 DUP3 ADD SLOAD DUP2 MSTORE PUSH1 0x20 ADD PUSH1 0x5 DUP3 ADD SLOAD DUP2 MSTORE PUSH1 0x20 ADD PUSH1 0x6 DUP3 ADD PUSH0 SWAP1 SLOAD SWAP1 PUSH2 0x100 EXP SWAP1 DIV PUSH1 0xFF AND ISZERO ISZERO ISZERO ISZERO DUP2 MSTORE PUSH1 0x20 ADD PUSH1 0x6 DUP3 ADD PUSH1 0x1 SWAP1 SLOAD SWAP1 PUSH2 0x100 EXP SWAP1 DIV PUSH1 0xFF AND ISZERO ISZERO ISZERO ISZERO DUP2 MSTORE POP POP SWAP1 POP DUP1 PUSH1 0xC0 ADD MLOAD DUP1 ISZERO PUSH2 0xCB1 JUMPI POP DUP1 PUSH1 0xE0 ADD MLOAD ISZERO JUMPDEST DUP1 ISZERO PUSH2 0xCC1 JUMPI POP DUP1 PUSH1 0xA0 ADD MLOAD TIMESTAMP GT ISZERO JUMPDEST ISZERO PUSH2 0xCD0 JUMPI PUSH1 0x1 SWAP2 POP POP PUSH2 0xCD5 JUMP JUMPDEST PUSH0 SWAP2 POP POP JUMPDEST SWAP3 SWAP2 POP POP JUMP JUMPDEST PUSH0 PUSH1 0x40 MLOAD SWAP1 POP SWAP1 JUMP JUMPDEST PUSH0 PUSH0 REVERT JUMPDEST PUSH0 PUSH0 REVERT JUMPDEST PUSH0 DUP2 SWAP1 POP SWAP2 SWAP1 POP JUMP JUMPDEST PUSH2 0xCFE DUP2 PUSH2 0xCEC JUMP JUMPDEST DUP2 EQ PUSH2 0xD08 JUMPI PUSH0 PUSH0 REVERT JUMPDEST POP JUMP JUMPDEST PUSH0 DUP2 CALLDATALOAD SWAP1 POP PUSH2 0xD19 DUP2 PUSH2 0xCF5 JUMP JUMPDEST SWAP3 SWAP2 POP POP JUMP JUMPDEST PUSH0 PUSH1 0x20 DUP3 DUP5 SUB SLT ISZERO PUSH2 0xD34 JUMPI PUSH2 0xD33 PUSH2 0xCE4 JUMP JUMPDEST JUMPDEST PUSH0 PUSH2 0xD41 DUP5 DUP3 DUP6 ADD PUSH2 0xD0B JUMP JUMPDEST SWAP2 POP POP SWAP3 SWAP2 POP POP JUMP JUMPDEST PUSH0 PUSH20 0xFFFFFFFFFFFFFFFFFFFFFFFFFFFFFFFFFFFFFFFF DUP3 AND SWAP1 POP SWAP2 SWAP1 POP JUMP JUMPDEST PUSH0 DUP2 SWAP1 POP SWAP2 SWAP1 POP JUMP JUMPDEST PUSH0 PUSH2 0xD8C PUSH2 0xD87 PUSH2 0xD82 DUP5 PUSH2 0xD4A JUMP JUMPDEST PUSH2 0xD69 JUMP JUMPDEST PUSH2 0xD4A JUMP JUMPDEST SWAP1 POP SWAP2 SWAP1 POP JUMP JUMPDEST PUSH0 PUSH2 0xD9D DUP3 PUSH2 0xD72 JUMP JUMPDEST SWAP1 POP SWAP2 SWAP1 POP JUMP JUMPDEST PUSH0 PUSH2 0xDAE DUP3 PUSH2 0xD93 JUMP JUMPDEST SWAP1 POP SWAP2 SWAP1 POP JUMP JUMPDEST PUSH2 0xDBE DUP2 PUSH2 0xDA4 JUMP JUMPDEST DUP3 MSTORE POP POP JUMP JUMPDEST PUSH0 PUSH1 0x20 DUP3 ADD SWAP1 POP PUSH2 0xDD7 PUSH0 DUP4 ADD DUP5 PUSH2 0xDB5 JUMP JUMPDEST SWAP3 SWAP2 POP POP JUMP JUMPDEST PUSH0 PUSH2 0xDE7 DUP3 PUSH2 0xD4A JUMP JUMPDEST SWAP1 POP SWAP2 SWAP1 POP JUMP JUMPDEST PUSH2 0xDF7 DUP2 PUSH2 0xDDD JUMP JUMPDEST DUP2 EQ PUSH2 0xE01 JUMPI PUSH0 PUSH0 REVERT JUMPDEST POP JUMP JUMPDEST PUSH0 DUP2 CALLDATALOAD SWAP1 POP PUSH2 0xE12 DUP2 PUSH2 0xDEE JUMP JUMPDEST SWAP3 SWAP2 POP POP JUMP JUMPDEST PUSH0 PUSH0 REVERT JUMPDEST PUSH0 PUSH0 REVERT JUMPDEST PUSH0 PUSH1 0x1F NOT PUSH1 0x1F DUP4 ADD AND SWAP1 POP SWAP2 SWAP1 POP JUMP JUMPDEST PUSH32 0x4E487B7100000000000000000000000000000000000000000000000000000000 PUSH0 MSTORE PUSH1 0x41 PUSH1 0x4 MSTORE PUSH1 0x24 PUSH0 REVERT JUMPDEST PUSH2 0xE66 DUP3 PUSH2 0xE20 JUMP JUMPDEST DUP2 ADD DUP2 DUP2 LT PUSH8 0xFFFFFFFFFFFFFFFF DUP3 GT OR ISZERO PUSH2 0xE85 JUMPI PUSH2 0xE84 PUSH2 0xE30 JUMP JUMPDEST JUMPDEST DUP1 PUSH1 0x40 MSTORE POP POP POP JUMP JUMPDEST PUSH0 PUSH2 0xE97 PUSH2 0xCDB JUMP JUMPDEST SWAP1 POP PUSH2 0xEA3 DUP3 DUP3 PUSH2 0xE5D JUMP JUMPDEST SWAP2 SWAP1 POP JUMP JUMPDEST PUSH0 PUSH8 0xFFFFFFFFFFFFFFFF DUP3 GT ISZERO PUSH2 0xEC2 JUMPI PUSH2 0xEC1 PUSH2 0xE30 JUMP JUMPDEST JUMPDEST PUSH2 0xECB DUP3 PUSH2 0xE20 JUMP JUMPDEST SWAP1 POP PUSH1 0x20 DUP2 ADD SWAP1 POP SWAP2 SWAP1 POP JUMP JUMPDEST DUP3 DUP2 DUP4 CALLDATACOPY PUSH0 DUP4 DUP4 ADD MSTORE POP POP POP JUMP JUMPDEST PUSH0 PUSH2 0xEF8 PUSH2 0xEF3 DUP5 PUSH2 0xEA8 JUMP JUMPDEST PUSH2 0xE8E JUMP JUMPDEST SWAP1 POP DUP3 DUP2 MSTORE PUSH1 0x20 DUP2 ADD DUP5 DUP5 DUP5 ADD GT ISZERO PUSH2 0xF14 JUMPI PUSH2 0xF13 PUSH2 0xE1C JUMP JUMPDEST JUMPDEST PUSH2 0xF1F DUP5 DUP3 DUP6 PUSH2 0xED8 JUMP JUMPDEST POP SWAP4 SWAP3 POP POP POP JUMP JUMPDEST PUSH0 DUP3 PUSH1 0x1F DUP4 ADD SLT PUSH2 0xF3B JUMPI PUSH2 0xF3A PUSH2 0xE18 JUMP JUMPDEST JUMPDEST DUP2 CALLDATALOAD PUSH2 0xF4B DUP5 DUP3 PUSH1 0x20 DUP7 ADD PUSH2 0xEE6 JUMP JUMPDEST SWAP2 POP POP SWAP3 SWAP2 POP POP JUMP JUMPDEST PUSH0 PUSH0 PUSH0 PUSH0 PUSH1 0x80 DUP6 DUP8 SUB SLT ISZERO PUSH2 0xF6C JUMPI PUSH2 0xF6B PUSH2 0xCE4 JUMP JUMPDEST JUMPDEST PUSH0 PUSH2 0xF79 DUP8 DUP3 DUP9 ADD PUSH2 0xE04 JUMP JUMPDEST SWAP5 POP POP PUSH1 0x20 DUP6 ADD CALLDATALOAD PUSH8 0xFFFFFFFFFFFFFFFF DUP2 GT ISZERO PUSH2 0xF9A JUMPI PUSH2 0xF99 PUSH2 0xCE8 JUMP JUMPDEST JUMPDEST PUSH2 0xFA6 DUP8 DUP3 DUP9 ADD PUSH2 0xF27 JUMP JUMPDEST SWAP4 POP POP PUSH1 0x40 DUP6 ADD CALLDATALOAD PUSH8 0xFFFFFFFFFFFFFFFF DUP2 GT ISZERO PUSH2 0xFC7 JUMPI PUSH2 0xFC6 PUSH2 0xCE8 JUMP JUMPDEST JUMPDEST PUSH2 0xFD3 DUP8 DUP3 DUP9 ADD PUSH2 0xF27 JUMP JUMPDEST SWAP3 POP POP PUSH1 0x60 PUSH2 0xFE4 DUP8 DUP3 DUP9 ADD PUSH2 0xD0B JUMP JUMPDEST SWAP2 POP POP SWAP3 SWAP6 SWAP2 SWAP5 POP SWAP3 POP JUMP JUMPDEST PUSH0 PUSH2 0xFFA DUP3 PUSH2 0xD93 JUMP JUMPDEST SWAP1 POP SWAP2 SWAP1 POP JUMP JUMPDEST PUSH2 0x100A DUP2 PUSH2 0xFF0 JUMP JUMPDEST DUP3 MSTORE POP POP JUMP JUMPDEST PUSH0 PUSH1 0x20 DUP3 ADD SWAP1 POP PUSH2 0x1023 PUSH0 DUP4 ADD DUP5 PUSH2 0x1001 JUMP JUMPDEST SWAP3 SWAP2 POP POP JUMP JUMPDEST PUSH0 DUP2 MLOAD SWAP1 POP SWAP2 SWAP1 POP JUMP JUMPDEST PUSH0 DUP3 DUP3 MSTORE PUSH1 0x20 DUP3 ADD SWAP1 POP SWAP3 SWAP2 POP POP JUMP JUMPDEST PUSH0 DUP2 SWAP1 POP PUSH1 0x20 DUP3 ADD SWAP1 POP SWAP2 SWAP1 POP JUMP JUMPDEST PUSH2 0x105B DUP2 PUSH2 0xDDD JUMP JUMPDEST DUP3 MSTORE POP POP JUMP JUMPDEST PUSH0 DUP2 MLOAD SWAP1 POP SWAP2 SWAP1 POP JUMP JUMPDEST PUSH0 DUP3 DUP3 MSTORE PUSH1 0x20 DUP3 ADD SWAP1 POP SWAP3 SWAP2 POP POP JUMP JUMPDEST DUP3 DUP2 DUP4 MCOPY PUSH0 DUP4 DUP4 ADD MSTORE POP POP POP JUMP JUMPDEST PUSH0 PUSH2 0x1093 DUP3 PUSH2 0x1061 JUMP JUMPDEST PUSH2 0x109D DUP2 DUP6 PUSH2 0x106B JUMP JUMPDEST SWAP4 POP PUSH2 0x10AD DUP2 DUP6 PUSH1 0x20 DUP7 ADD PUSH2 0x107B JUMP JUMPDEST PUSH2 0x10B6 DUP2 PUSH2 0xE20 JUMP JUMPDEST DUP5 ADD SWAP2 POP POP SWAP3 SWAP2 POP POP JUMP JUMPDEST PUSH2 0x10CA DUP2 PUSH2 0xCEC JUMP JUMPDEST DUP3 MSTORE POP POP JUMP JUMPDEST PUSH0 DUP2 ISZERO ISZERO SWAP1 POP SWAP2 SWAP1 POP JUMP JUMPDEST PUSH2 0x10E4 DUP2 PUSH2 0x10D0 JUMP JUMPDEST DUP3 MSTORE POP POP JUMP JUMPDEST PUSH0 PUSH2 0x100 DUP4 ADD PUSH0 DUP4 ADD MLOAD PUSH2 0x1100 PUSH0 DUP7 ADD DUP3 PUSH2 0x1052 JUMP JUMPDEST POP PUSH1 0x20 DUP4 ADD MLOAD PUSH2 0x1113 PUSH1 0x20 DUP7 ADD DUP3 PUSH2 0x1052 JUMP JUMPDEST POP PUSH1 0x40 DUP4 ADD MLOAD DUP5 DUP3 SUB PUSH1 0x40 DUP7 ADD MSTORE PUSH2 0x112B DUP3 DUP3 PUSH2 0x1089 JUMP JUMPDEST SWAP2 POP POP PUSH1 0x60 DUP4 ADD MLOAD DUP5 DUP3 SUB PUSH1 0x60 DUP7 ADD MSTORE PUSH2 0x1145 DUP3 DUP3 PUSH2 0x1089 JUMP JUMPDEST SWAP2 POP POP PUSH1 0x80 DUP4 ADD MLOAD PUSH2 0x115A PUSH1 0x80 DUP7 ADD DUP3 PUSH2 0x10C1 JUMP JUMPDEST POP PUSH1 0xA0 DUP4 ADD MLOAD PUSH2 0x116D PUSH1 0xA0 DUP7 ADD DUP3 PUSH2 0x10C1 JUMP JUMPDEST POP PUSH1 0xC0 DUP4 ADD MLOAD PUSH2 0x1180 PUSH1 0xC0 DUP7 ADD DUP3 PUSH2 0x10DB JUMP JUMPDEST POP PUSH1 0xE0 DUP4 ADD MLOAD PUSH2 0x1193 PUSH1 0xE0 DUP7 ADD DUP3 PUSH2 0x10DB JUMP JUMPDEST POP DUP1 SWAP2 POP POP SWAP3 SWAP2 POP POP JUMP JUMPDEST PUSH0 PUSH2 0x11A9 DUP4 DUP4 PUSH2 0x10EA JUMP JUMPDEST SWAP1 POP SWAP3 SWAP2 POP POP JUMP JUMPDEST PUSH0 PUSH1 0x20 DUP3 ADD SWAP1 POP SWAP2 SWAP1 POP JUMP JUMPDEST PUSH0 PUSH2 0x11C7 DUP3 PUSH2 0x1029 JUMP JUMPDEST PUSH2 0x11D1 DUP2 DUP6 PUSH2 0x1033 JUMP JUMPDEST SWAP4 POP DUP4 PUSH1 0x20 DUP3 MUL DUP6 ADD PUSH2 0x11E3 DUP6 PUSH2 0x1043 JUMP JUMPDEST DUP1 PUSH0 JUMPDEST DUP6 DUP2 LT ISZERO PUSH2 0x121E JUMPI DUP5 DUP5 SUB DUP10 MSTORE DUP2 MLOAD PUSH2 0x11FF DUP6 DUP3 PUSH2 0x119E JUMP JUMPDEST SWAP5 POP PUSH2 0x120A DUP4 PUSH2 0x11B1 JUMP JUMPDEST SWAP3 POP PUSH1 0x20 DUP11 ADD SWAP10 POP POP PUSH1 0x1 DUP2 ADD SWAP1 POP PUSH2 0x11E6 JUMP JUMPDEST POP DUP3 SWAP8 POP DUP8 SWAP6 POP POP POP POP POP POP SWAP3 SWAP2 POP POP JUMP JUMPDEST PUSH0 PUSH1 0x20 DUP3 ADD SWAP1 POP DUP2 DUP2 SUB PUSH0 DUP4 ADD MSTORE PUSH2 0x1248 DUP2 DUP5 PUSH2 0x11BD JUMP JUMPDEST SWAP1 POP SWAP3 SWAP2 POP POP JUMP JUMPDEST PUSH0 PUSH0 PUSH1 0x40 DUP4 DUP6 SUB SLT ISZERO PUSH2 0x1266 JUMPI PUSH2 0x1265 PUSH2 0xCE4 JUMP JUMPDEST JUMPDEST PUSH0 PUSH2 0x1273 DUP6 DUP3 DUP7 ADD PUSH2 0xE04 JUMP JUMPDEST SWAP3 POP POP PUSH1 0x20 PUSH2 0x1284 DUP6 DUP3 DUP7 ADD PUSH2 0xD0B JUMP JUMPDEST SWAP2 POP POP SWAP3 POP SWAP3 SWAP1 POP JUMP JUMPDEST PUSH2 0x1297 DUP2 PUSH2 0x10D0 JUMP JUMPDEST DUP3 MSTORE POP POP JUMP JUMPDEST PUSH0 PUSH1 0x20 DUP3 ADD SWAP1 POP PUSH2 0x12B0 PUSH0 DUP4 ADD DUP5 PUSH2 0x128E JUMP JUMPDEST SWAP3 SWAP2 POP POP JUMP JUMPDEST PUSH32 0x4E487B7100000000000000000000000000000000000000000000000000000000 PUSH0 MSTORE PUSH1 0x32 PUSH1 0x4 MSTORE PUSH1 0x24 PUSH0 REVERT JUMPDEST PUSH2 0x12EC DUP2 PUSH2 0xDDD JUMP JUMPDEST DUP3 MSTORE POP POP JUMP JUMPDEST PUSH2 0x12FB DUP2 PUSH2 0xCEC JUMP JUMPDEST DUP3 MSTORE POP POP JUMP JUMPDEST PUSH0 PUSH1 0x40 DUP3 ADD SWAP1 POP PUSH2 0x1314 PUSH0 DUP4 ADD DUP6 PUSH2 0x12E3 JUMP JUMPDEST PUSH2 0x1321 PUSH1 0x20 DUP4 ADD DUP5 PUSH2 0x12F2 JUMP JUMPDEST SWAP4 SWAP3 POP POP POP JUMP JUMPDEST PUSH0 DUP3 DUP3 MSTORE PUSH1 0x20 DUP3 ADD SWAP1 POP SWAP3 SWAP2 POP POP JUMP JUMPDEST PUSH32 0x416C7265616479207265766F6B65640000000000000000000000000000000000 PUSH0 DUP3 ADD MSTORE POP JUMP JUMPDEST PUSH0 PUSH2 0x136C PUSH1 0xF DUP4 PUSH2 0x1328 JUMP JUMPDEST SWAP2 POP PUSH2 0x1377 DUP3 PUSH2 0x1338 JUMP JUMPDEST PUSH1 0x20 DUP3 ADD SWAP1 POP SWAP2 SWAP1 POP JUMP JUMPDEST PUSH0 PUSH1 0x20 DUP3 ADD SWAP1 POP DUP2 DUP2 SUB PUSH0 DUP4 ADD MSTORE PUSH2 0x1399 DUP2 PUSH2 0x1360 JUMP JUMPDEST SWAP1 POP SWAP2 SWAP1 POP JUMP JUMPDEST PUSH0 PUSH1 0x40 DUP3 ADD SWAP1 POP PUSH2 0x13B3 PUSH0 DUP4 ADD DUP6 PUSH2 0x12E3 JUMP JUMPDEST PUSH2 0x13C0 PUSH1 0x20 DUP4 ADD DUP5 PUSH2 0x12E3 JUMP JUMPDEST SWAP4 SWAP3 POP POP POP JUMP JUMPDEST PUSH0 PUSH1 0x20 DUP3 ADD SWAP1 POP PUSH2 0x13DA PUSH0 DUP4 ADD DUP5 PUSH2 0x12E3 JUMP JUMPDEST SWAP3 SWAP2 POP POP JUMP JUMPDEST PUSH2 0x13E9 DUP2 PUSH2 0x10D0 JUMP JUMPDEST DUP2 EQ PUSH2 0x13F3 JUMPI PUSH0 PUSH0 REVERT JUMPDEST POP JUMP JUMPDEST PUSH0 DUP2 MLOAD SWAP1 POP PUSH2 0x1404 DUP2 PUSH2 0x13E0 JUMP JUMPDEST SWAP3 SWAP2 POP POP JUMP JUMPDEST PUSH0 PUSH1 0x20 DUP3 DUP5 SUB SLT ISZERO PUSH2 0x141F JUMPI PUSH2 0x141E PUSH2 0xCE4 JUMP JUMPDEST JUMPDEST PUSH0 PUSH2 0x142C DUP5 DUP3 DUP6 ADD PUSH2 0x13F6 JUMP JUMPDEST SWAP2 POP POP SWAP3 SWAP2 POP POP JUMP JUMPDEST PUSH32 0x466964756369617279206E6F7420617070726F76656400000000000000000000 PUSH0 DUP3 ADD MSTORE POP JUMP JUMPDEST PUSH0 PUSH2 0x1469 PUSH1 0x16 DUP4 PUSH2 0x1328 JUMP JUMPDEST SWAP2 POP PUSH2 0x1474 DUP3 PUSH2 0x1435 JUMP JUMPDEST PUSH1 0x20 DUP3 ADD SWAP1 POP SWAP2 SWAP1 POP JUMP JUMPDEST PUSH0 PUSH1 0x20 DUP3 ADD SWAP1 POP DUP2 DUP2 SUB PUSH0 DUP4 ADD MSTORE PUSH2 0x1496 DUP2 PUSH2 0x145D JUMP JUMPDEST SWAP1 POP SWAP2 SWAP1 POP JUMP JUMPDEST PUSH32 0x4E487B7100000000000000000000000000000000000000000000000000000000 PUSH0 MSTORE PUSH1 0x11 PUSH1 0x4 MSTORE PUSH1 0x24 PUSH0 REVERT JUMPDEST PUSH0 PUSH2 0x14D4 DUP3 PUSH2 0xCEC JUMP JUMPDEST SWAP2 POP PUSH2 0x14DF DUP4 PUSH2 0xCEC JUMP JUMPDEST SWAP3 POP DUP3 DUP3 ADD SWAP1 POP DUP1 DUP3 GT ISZERO PUSH2 0x14F7 JUMPI PUSH2 0x14F6 PUSH2 0x149D JUMP JUMPDEST JUMPDEST SWAP3 SWAP2 POP POP JUMP JUMPDEST PUSH32 0x4E487B7100000000000000000000000000000000000000000000000000000000 PUSH0 MSTORE PUSH1 0x22 PUSH1 0x4 MSTORE PUSH1 0x24 PUSH0 REVERT JUMPDEST PUSH0 PUSH1 0x2 DUP3 DIV SWAP1 POP PUSH1 0x1 DUP3 AND DUP1 PUSH2 0x1541 JUMPI PUSH1 0x7F DUP3 AND SWAP2 POP JUMPDEST PUSH1 0x20 DUP3 LT DUP2 SUB PUSH2 0x1554 JUMPI PUSH2 0x1553 PUSH2 0x14FD JUMP JUMPDEST JUMPDEST POP SWAP2 SWAP1 POP JUMP JUMPDEST PUSH0 DUP2 SWAP1 POP DUP2 PUSH0 MSTORE PUSH1 0x20 PUSH0 KECCAK256 SWAP1 POP SWAP2 SWAP1 POP JUMP JUMPDEST PUSH0 PUSH1 0x20 PUSH1 0x1F DUP4 ADD DIV SWAP1 POP SWAP2 SWAP1 POP JUMP JUMPDEST PUSH0 DUP3 DUP3 SHL SWAP1 POP SWAP3 SWAP2 POP POP JUMP JUMPDEST PUSH0 PUSH1 0x8 DUP4 MUL PUSH2 0x15B6 PUSH32 0xFFFFFFFFFFFFFFFFFFFFFFFFFFFFFFFFFFFFFFFFFFFFFFFFFFFFFFFFFFFFFFFF DUP3 PUSH2 0x157B JUMP JUMPDEST PUSH2 0x15C0 DUP7 DUP4 PUSH2 0x157B JUMP JUMPDEST SWAP6 POP DUP1 NOT DUP5 AND SWAP4 POP DUP1 DUP7 AND DUP5 OR SWAP3 POP POP POP SWAP4 SWAP3 POP POP POP JUMP JUMPDEST PUSH0 PUSH2 0x15F2 PUSH2 0x15ED PUSH2 0x15E8 DUP5 PUSH2 0xCEC JUMP JUMPDEST PUSH2 0xD69 JUMP JUMPDEST PUSH2 0xCEC JUMP JUMPDEST SWAP1 POP SWAP2 SWAP1 POP JUMP JUMPDEST PUSH0 DUP2 SWAP1 POP SWAP2 SWAP1 POP JUMP JUMPDEST PUSH2 0x160B DUP4 PUSH2 0x15D8 JUMP JUMPDEST PUSH2 0x161F PUSH2 0x1617 DUP3 PUSH2 0x15F9 JUMP JUMPDEST DUP5 DUP5 SLOAD PUSH2 0x1587 JUMP JUMPDEST DUP3 SSTORE POP POP POP POP JUMP JUMPDEST PUSH0 PUSH0 SWAP1 POP SWAP1 JUMP JUMPDEST PUSH2 0x1636 PUSH2 0x1627 JUMP JUMPDEST PUSH2 0x1641 DUP2 DUP5 DUP5 PUSH2 0x1602 JUMP JUMPDEST POP POP POP JUMP JUMPDEST JUMPDEST DUP2 DUP2 LT ISZERO PUSH2 0x1664 JUMPI PUSH2 0x1659 PUSH0 DUP3 PUSH2 0x162E JUMP JUMPDEST PUSH1 0x1 DUP2 ADD SWAP1 POP PUSH2 0x1647 JUMP JUMPDEST POP POP JUMP JUMPDEST PUSH1 0x1F DUP3 GT ISZERO PUSH2 0x16A9 JUMPI PUSH2 0x167A DUP2 PUSH2 0x155A JUMP JUMPDEST PUSH2 0x1683 DUP5 PUSH2 0x156C JUMP JUMPDEST DUP2 ADD PUSH1 0x20 DUP6 LT ISZERO PUSH2 0x1692 JUMPI DUP2 SWAP1 POP JUMPDEST PUSH2 0x16A6 PUSH2 0x169E DUP6 PUSH2 0x156C JUMP JUMPDEST DUP4 ADD DUP3 PUSH2 0x1646 JUMP JUMPDEST POP POP JUMPDEST POP POP POP JUMP JUMPDEST PUSH0 DUP3 DUP3 SHR SWAP1 POP SWAP3 SWAP2 POP POP JUMP JUMPDEST PUSH0 PUSH2 0x16C9 PUSH0 NOT DUP5 PUSH1 0x8 MUL PUSH2 0x16AE JUMP JUMPDEST NOT DUP1 DUP4 AND SWAP2 POP POP SWAP3 SWAP2 POP POP JUMP JUMPDEST PUSH0 PUSH2 0x16E1 DUP4 DUP4 PUSH2 0x16BA JUMP JUMPDEST SWAP2 POP DUP3 PUSH1 0x2 MUL DUP3 OR SWAP1 POP SWAP3 SWAP2 POP POP JUMP JUMPDEST PUSH2 0x16FA DUP3 PUSH2 0x1061 JUMP JUMPDEST PUSH8 0xFFFFFFFFFFFFFFFF DUP2 GT ISZERO PUSH2 0x1713 JUMPI PUSH2 0x1712 PUSH2 0xE30 JUMP JUMPDEST JUMPDEST PUSH2 0x171D DUP3 SLOAD PUSH2 0x152A JUMP JUMPDEST PUSH2 0x1728 DUP3 DUP3 DUP6 PUSH2 0x1668 JUMP JUMPDEST PUSH0 PUSH1 0x20 SWAP1 POP PUSH1 0x1F DUP4 GT PUSH1 0x1 DUP2 EQ PUSH2 0x1759 JUMPI PUSH0 DUP5 ISZERO PUSH2 0x1747 JUMPI DUP3 DUP8 ADD MLOAD SWAP1 POP JUMPDEST PUSH2 0x1751 DUP6 DUP3 PUSH2 0x16D6 JUMP JUMPDEST DUP7 SSTORE POP PUSH2 0x17B8 JUMP JUMPDEST PUSH1 0x1F NOT DUP5 AND PUSH2 0x1767 DUP7 PUSH2 0x155A JUMP JUMPDEST PUSH0 JUMPDEST DUP3 DUP2 LT ISZERO PUSH2 0x178E JUMPI DUP5 DUP10 ADD MLOAD DUP3 SSTORE PUSH1 0x1 DUP3 ADD SWAP2 POP PUSH1 0x20 DUP6 ADD SWAP5 POP PUSH1 0x20 DUP2 ADD SWAP1 POP PUSH2 0x1769 JUMP JUMPDEST DUP7 DUP4 LT ISZERO PUSH2 0x17AB JUMPI DUP5 DUP10 ADD MLOAD PUSH2 0x17A7 PUSH1 0x1F DUP10 AND DUP3 PUSH2 0x16BA JUMP JUMPDEST DUP4 SSTORE POP JUMPDEST PUSH1 0x1 PUSH1 0x2 DUP9 MUL ADD DUP9 SSTORE POP POP POP JUMPDEST POP POP POP POP POP POP JUMP JUMPDEST PUSH0 PUSH2 0x17CA DUP3 PUSH2 0x1061 JUMP JUMPDEST PUSH2 0x17D4 DUP2 DUP6 PUSH2 0x1328 JUMP JUMPDEST SWAP4 POP PUSH2 0x17E4 DUP2 DUP6 PUSH1 0x20 DUP7 ADD PUSH2 0x107B JUMP JUMPDEST PUSH2 0x17ED DUP2 PUSH2 0xE20 JUMP JUMPDEST DUP5 ADD SWAP2 POP POP SWAP3 SWAP2 POP POP JUMP JUMPDEST PUSH0 PUSH1 0x80 DUP3 ADD SWAP1 POP PUSH2 0x180B PUSH0 DUP4 ADD DUP8 PUSH2 0x12E3 JUMP JUMPDEST PUSH2 0x1818 PUSH1 0x20 DUP4 ADD DUP7 PUSH2 0x12E3 JUMP JUMPDEST DUP2 DUP2 SUB PUSH1 0x40 DUP4 ADD MSTORE PUSH2 0x182A DUP2 DUP6 PUSH2 0x17C0 JUMP JUMPDEST SWAP1 POP PUSH2 0x1839 PUSH1 0x60 DUP4 ADD DUP5 PUSH2 0x12F2 JUMP JUMPDEST SWAP6 SWAP5 POP POP POP POP POP JUMP INVALID LOG2 PUSH5 0x6970667358 0x22 SLT KECCAK256 0x28 DUP12 0xC7 EXTCODEHASH MULMOD DUP16 0xB4 0xE4 CALLVALUE 0xB4 PUSH6 0x12560E51B0B1 BLOBHASH 0xB4 0xC6 SLOAD SWAP16 0x28 ADDRESS SWAP4 DUP4 JUMP 0xC6 KECCAK256 PUSH30 0xF99A64736F6C634300081C00330000000000000000000000000000000000 "},"methodIdentifiers":{"audit()":"1ddc0ef0","getMyConsents()":"7cc36dee","grantConsent(address,string,string,uint256)":"4448e28f","registry()":"7b103999","requestErasure(uint256)":"09e422e7","revokeConsent(uint256)":"16a0042c","validateConsent(address,uint256)":"d46038ec"}}}}}