{
  "_format": "hh3-artifact-1",
  "contractName": "VolunteerRegistry",
  "sourceName": "contracts/VolunteerRegistry.sol",
  "abi": [
    {
      "anonymous": false,
      "inputs": [
        {
          "indexed": false,
          "internalType": "bytes32",
          "name": "hashId",
          "type": "bytes32"
        },
        {
          "indexed": false,
          "internalType": "bool",
          "name": "active",
          "type": "bool"
        }
      ],
      "name": "StatusUpdated",
      "type": "event"
    },
    {
      "anonymous": false,
      "inputs": [
        {
          "indexed": false,
          "internalType": "bytes32",
          "name": "hashId",
          "type": "bytes32"
        },
        {
          "indexed": false,
          "internalType": "string",
          "name": "cid",
          "type": "string"
        }
      ],
      "name": "VolunteerAdded",
      "type": "event"
    },
    {
      "inputs": [
        {
          "internalType": "bytes32",
          "name": "hashId",
          "type": "bytes32"
        },
        {
          "internalType": "string",
          "name": "cid",
          "type": "string"
        }
      ],
      "name": "addVolunteer",
      "outputs": [],
      "stateMutability": "nonpayable",
      "type": "function"
    },
    {
      "inputs": [
        {
          "internalType": "bytes32",
          "name": "hashId",
          "type": "bytes32"
        }
      ],
      "name": "getVolunteer",
      "outputs": [
        {
          "internalType": "string",
          "name": "cid",
          "type": "string"
        },
        {
          "internalType": "bool",
          "name": "active",
          "type": "bool"
        }
      ],
      "stateMutability": "view",
      "type": "function"
    },
    {
      "inputs": [
        {
          "internalType": "bytes32",
          "name": "hashId",
          "type": "bytes32"
        },
        {
          "internalType": "bool",
          "name": "active",
          "type": "bool"
        }
      ],
      "name": "updateStatus",
      "outputs": [],
      "stateMutability": "nonpayable",
      "type": "function"
    },
    {
      "inputs": [
        {
          "internalType": "bytes32",
          "name": "",
          "type": "bytes32"
        }
      ],
      "name": "volunteers",
      "outputs": [
        {
          "internalType": "string",
          "name": "cid",
          "type": "string"
        },
        {
          "internalType": "bool",
          "name": "active",
          "type": "bool"
        }
      ],
      "stateMutability": "view",
      "type": "function"
    }
  ],
  "bytecode": "0x6080604052348015600e575f5ffd5b506109fc8061001c5f395ff3fe608060405234801561000f575f5ffd5b506004361061004a575f3560e01c80631c61b2231461004e578063a6fc08851461006a578063e58603a91461009b578063ec7668e2146100b7575b5f5ffd5b610068600480360381019061006391906104f8565b6100e8565b005b610084600480360381019061007f9190610552565b610183565b6040516100929291906105f7565b60405180910390f35b6100b560048036038101906100b0919061064f565b610234565b005b6100d160048036038101906100cc9190610552565b61029b565b6040516100df9291906105f7565b60405180910390f35b6040518060400160405280828152602001600115158152505f5f8481526020019081526020015f205f820151815f0190816101239190610893565b506020820151816001015f6101000a81548160ff0219169083151502179055509050507f3c128b0cafe5b2a33df75b13777916fcd7f860f404a87c5ee8f0134cea31e9f28282604051610177929190610971565b60405180910390a15050565b5f602052805f5260405f205f91509050805f0180546101a1906106ba565b80601f01602080910402602001604051908101604052809291908181526020018280546101cd906106ba565b80156102185780601f106101ef57610100808354040283529160200191610218565b820191905f5260205f20905b8154815290600101906020018083116101fb57829003601f168201915b505050505090806001015f9054906101000a900460ff16905082565b805f5f8481526020019081526020015f206001015f6101000a81548160ff0219169083151502179055507fcbfc2b1721e89c22fa7b492dc3d0b2540a194465a99e6e01ae2440404a62ff8b828260405161028f92919061099f565b60405180910390a15050565b60605f5f5f5f8581526020019081526020015f206040518060400160405290815f820180546102c9906106ba565b80601f01602080910402602001604051908101604052809291908181526020018280546102f5906106ba565b80156103405780601f1061031757610100808354040283529160200191610340565b820191905f5260205f20905b81548152906001019060200180831161032357829003601f168201915b50505050508152602001600182015f9054906101000a900460ff1615151515815250509050805f015181602001519250925050915091565b5f604051905090565b5f5ffd5b5f5ffd5b5f819050919050565b61039b81610389565b81146103a5575f5ffd5b50565b5f813590506103b681610392565b92915050565b5f5ffd5b5f5ffd5b5f601f19601f8301169050919050565b7f4e487b71000000000000000000000000000000000000000000000000000000005f52604160045260245ffd5b61040a826103c4565b810181811067ffffffffffffffff82111715610429576104286103d4565b5b80604052505050565b5f61043b610378565b90506104478282610401565b919050565b5f67ffffffffffffffff821115610466576104656103d4565b5b61046f826103c4565b9050602081019050919050565b828183375f83830152505050565b5f61049c6104978461044c565b610432565b9050828152602081018484840111156104b8576104b76103c0565b5b6104c384828561047c565b509392505050565b5f82601f8301126104df576104de6103bc565b5b81356104ef84826020860161048a565b91505092915050565b5f5f6040838503121561050e5761050d610381565b5b5f61051b858286016103a8565b925050602083013567ffffffffffffffff81111561053c5761053b610385565b5b610548858286016104cb565b9150509250929050565b5f6020828403121561056757610566610381565b5b5f610574848285016103a8565b91505092915050565b5f81519050919050565b5f82825260208201905092915050565b8281835e5f83830152505050565b5f6105af8261057d565b6105b98185610587565b93506105c9818560208601610597565b6105d2816103c4565b840191505092915050565b5f8115159050919050565b6105f1816105dd565b82525050565b5f6040820190508181035f83015261060f81856105a5565b905061061e60208301846105e8565b9392505050565b61062e816105dd565b8114610638575f5ffd5b50565b5f8135905061064981610625565b92915050565b5f5f6040838503121561066557610664610381565b5b5f610672858286016103a8565b92505060206106838582860161063b565b9150509250929050565b7f4e487b71000000000000000000000000000000000000000000000000000000005f52602260045260245ffd5b5f60028204905060018216806106d157607f821691505b6020821081036106e4576106e361068d565b5b50919050565b5f819050815f5260205f209050919050565b5f6020601f8301049050919050565b5f82821b905092915050565b5f600883026107467fffffffffffffffffffffffffffffffffffffffffffffffffffffffffffffffff8261070b565b610750868361070b565b95508019841693508086168417925050509392505050565b5f819050919050565b5f819050919050565b5f61079461078f61078a84610768565b610771565b610768565b9050919050565b5f819050919050565b6107ad8361077a565b6107c16107b98261079b565b848454610717565b825550505050565b5f5f905090565b6107d86107c9565b6107e38184846107a4565b505050565b5b81811015610806576107fb5f826107d0565b6001810190506107e9565b5050565b601f82111561084b5761081c816106ea565b610825846106fc565b81016020851015610834578190505b610848610840856106fc565b8301826107e8565b50505b505050565b5f82821c905092915050565b5f61086b5f1984600802610850565b1980831691505092915050565b5f610883838361085c565b9150826002028217905092915050565b61089c8261057d565b67ffffffffffffffff8111156108b5576108b46103d4565b5b6108bf82546106ba565b6108ca82828561080a565b5f60209050601f8311600181146108fb575f84156108e9578287015190505b6108f38582610878565b86555061095a565b601f198416610909866106ea565b5f5b828110156109305784890151825560018201915060208501945060208101905061090b565b8683101561094d5784890151610949601f89168261085c565b8355505b6001600288020188555050505b505050505050565b61096b81610389565b82525050565b5f6040820190506109845f830185610962565b818103602083015261099681846105a5565b90509392505050565b5f6040820190506109b25f830185610962565b6109bf60208301846105e8565b939250505056fea2646970667358221220ab4f425b8013886b89d00e3129d4c8d987eda9bf4442184f7d1f779cf9d8ba5864736f6c634300081c0033",
  "linkReferences": {},
  "deployedLinkReferences": {},
  "immutableReferences": {},
  "inputSourceName": "project/contracts/VolunteerRegistry.sol",
  "buildInfoId": "solc-0_8_28-aa35902d2c39e80aba8a06bd6404e0280af89526"
}